:020000040800F2
:10000000481301207102000871980008E58100087A
:100010009D970008A9180008E1FC000800000000F6
:1000200000000000000000000000000031B00008E7
:10003000B525000800000000819D00084DB50008AE
:100040008B0200088B0200088B0200088B0200085C
:100050008B0200088B0200088B0200088B0200084C
:100060008B0200088B0200088B0200088B0200083C
:10007000592000088B0200088B0200088B02000840
:100080008B0200088B0200088B0200088B0200081C
:10009000AD1800088B0200088B0200081D2600081E
:1000A0008B0200088B0200088B0200088B020008FC
:1000B0005DB600088B0200088B0200088B02000866
:1000C0008B0200088B0200088B0200088B020008DC
:1000D0008B02000831C200088B02000841C20008F0
:1000E0008B0200088B0200088B0200088B020008BC
:1000F0008B0200088B0200088B0200088B020008AC
:100100008B0200088B0200088B0200088B0200089B
:100110008B0200088B0200088B0200088B0200088B
:100120008B0200088B020008692000088B0200087F
:100130008B0200088B0200088B0200088B0200086B
:1001400029190008391900088B020008E9980008ED
:100150008B0200088B020008792000088B0200083F
:100160008B0200088B0200088B0200088B0200083B
:100170008B0200088B0200088B02000800000000C0
:100180008B0200088B02000800F002F800F060F813
:100190000AA090E8000C82448344AAF10107DA45E2
:1001A00001D100F055F8AFF2090EBAE80F0013F0D4
:1001B000010F18BFFB1A43F0010318476026010026
:1001C000802601000A444FF0000C10F8013B13F0A8
:1001D000070408BF10F8014B1D1108BF10F8015BA0
:1001E000641E05D010F8016B641E01F8016BF9D193
:1001F00013F0080F1EBF10F8014BAD1C0C1B09D1EA
:100200006D1E58BF01F801CBFAD505E014F8016B5B
:1002100001F8016B6D1EF9D59142D6D370470000ED
:100220000023002400250026103A28BF78C1FBD8FF
:10023000520728BF30C148BF0B6070471FB512F08E
:1002400042F99DE8030000F027FE1FBD10B510BD68
:1002500000F0B4FE1146FFF7F1FF10F051FA00F084
:10026000D2FE03B4FFF7F2FF03BC00F003FF00006F
:100270000948804709480047FEE7FEE7FEE7FEE73A
:10028000FEE7FEE7FEE7FEE7FEE7FEE70448054976
:10029000054A064B7047000049B60008890100086E
:1002A000489300204813012048D3002048D3002061
:1002B00070B405880E884468D1F804C05368B5420C
:1002C00008D140884988884201BF11888D425188F1
:1002D000884203D070BC6FF00200704705FB00F14C
:1002E000880827D094ED001ADCED000A94ED010A8D
:1002F000DCED011A31EE201AD4ED020A70EE211A5B
:100300009CED020A83ED001AC3ED011A94ED031A65
:10031000DCED031A30EE800A401E71EE210A83EDF7
:10032000020A04F11004C3ED030A03F110030CF1F7
:10033000100CD7D111F0030030D0B0F1004F30D203
:1003400000282BDD211F1B1FACF1040210F0010F50
:100350000AD091ED010AD2ED010A091D121D30EEFD
:10036000200A83ED010A1B1D400817D091ED010AF8
:10037000D2ED010A401E30EE200A83ED010A91ED14
:10038000020AD2ED020A01F1080102F1080230EE80
:10039000200A83ED020A03F10803E7D170BC0020B4
:1003A0007047B4EC010A401EFCEC010A30EE200A52
:1003B000A3EC010AF5D1F1E7018042804360704768
:1003C0002DE9F34F84B0049840680090486801908C
:1003D0000498B0F800E04588DFEDFE0A00200290A6
:1003E000B0EE600AAE4506D108884988884204BF4D
:1003F0007146864504D06FF0020006B0BDE8F08F6C
:1004000001985FEA010C18BFB7EE001A3DD000BF9B
:10041000BEEB0C0117D0B1F1004F80F01F82002914
:1004200011DD021F11F0010F1CBFC2ED010A121DE8
:100430004B1006D0C2ED010AC2ED020A08325B1E63
:10044000F8D100EB8100BCF10102A0EC011A19D037
:10045000B2F1004F80F00882002A13DD031F12F072
:10046000010F1CBFC3ED010A1B1D511008D000BFB6
:10047000C3ED010AC3ED020A491E03F10803F7D1D7
:1004800000EB8200BCF1010CC2D14FF000080395D3
:10049000002D14BFB0EE602A002000F0BF8100BF25
:1004A000009908FB05F001EB800B0199DBED002AB8
:1004B00001EB80000346F0EE421AC64552D9AEEB7E
:1004C0000802ABEB850112F0010F17D001EB85019B
:1004D00091ED000AB5EEC00AF1EE10FA07DDB4EEB8
:1004E000E10AF1EE10FA09DDF0EE401A06E0B1EE95
:1004F000400AF4EEC01AF1EE10FAF5D3521031D0E2
:1005000001EB850C9CED000AB5EEC00AF1EE10FA85
:1005100005DDB4EEE10AF1EE10FA09DD06E0B1EE18
:10052000400AF4EEC01AF1EE10FA01D2F0EE401AD1
:1005300001EBC50191ED000AB5EEC00AF1EE10FA2B
:1005400005DDB4EEE10AF1EE10FA09DD06E0B1EEE8
:10055000400AF4EEC01AF1EE10FA01D2F0EE401AA1
:10056000521ECDD1F5EEC01AF1EE10FA00F07381F3
:10057000F5EEC02A0126F1EE10FA0099D4BFB1EED3
:10058000620AB0EE620AB4EE610AF1EE10FA1CBF24
:10059000AEEB0802B2F1010C47D005FB08F201EB0B
:1005A000820292ED001A00BFB0EE410A05FB06F48C
:1005B000B5EEC00A00EB8404F1EE10FACCBFF0EE09
:1005C000400AF1EE400AF4EE610AF1EE10FA28D189
:1005D000B5EB080C11D0BCF1004F7DD2BCF1000F7F
:1005E0000BDD00BF92ED000AD1ED000ABCF1010C59
:1005F000E2EC010AA1EC010AF4D129000ED0B1F11C
:10060000004F6AD2002909DD94ED000AD0ED000AFE
:10061000491EE4EC010AA0EC010AF5D10120029088
:100620000BE0761CBCF1010CBED10298012804D06D
:10063000F5EEC02AF1EE10FA7ED09BED000AB5EB84
:1006400008009A465946064622D0B0F1004F74D2AF
:1006500000281DDD091F10F0010F06D0F0EE400A42
:1006600080EEA01A81ED011A091D401010D000BFC4
:10067000D1ED010A401E80EE801A81ED011A91ED44
:10068000021AC1EE000AC1ED020A01F10801EFD120
:10069000280026D0B0F1004F7ED2002821DDAAF13B
:1006A000040110F0010F06D0D1ED010A80EE801A8E
:1006B00081ED011A091D401013D000BFD1ED010AD0
:1006C000401E80EE801A81ED011AD1ED020A80EE03
:1006D000801A81ED021A01E0CBE0D6E001F10801B9
:1006E000ECD1DDE900124FF000095FEA0E0773D08C
:1006F000C14504BF01EB860102EB850274D091ED88
:10070000000ADC465046331E35D01C46B6F1004F79
:100710007ED2002C2FDD0B1FABF1040C16F0010F65
:100720000FD0F0EE400ADCED011AB0EE601A00EED8
:10073000E11A83ED011A01E08DE0B1E01B1D0CF11F
:10074000040C741015D000BFD3ED010A9CED011A02
:1007500040EE410AC3ED010AD3ED020A9CED021AF4
:100760000CF1080C40EE410AC3ED020A0833641E86
:10077000EAD101EB86012B0036D0B3F1004F72D2E3
:10078000002B31DDA2F1040CAAF1040013F0010FDB
:100790000CD0DCED010A00E08BE090ED011A001DA9
:1007A00040EE410ACCED010A0CF1040C5C1019D0AA
:1007B000DCED010A90ED011A40EE410ACCED010A90
:1007C000DCED020A90ED021A083040EE410ACCED51
:1007D000020A03E0000000000DE005E0641E0CF1D9
:1007E000080CE5D102EB830201EB88017F1E09F1C1
:1007F00001097FF47DAF009808F10108001D009009
:100800000398401E03907FF44BAE0299012900E04B
:1008100058E004BF06B0BDE8F08F00BFB5EEC00AD7
:10082000F1EE10FA7FF4E9AD04990EFB05F3002B0D
:100830004A684FF000010BD902EB810C9CED000AD5
:10084000B5EEC00AF1EE10FA02D1491C8B42F3D882
:100850008B427FF4D2AD6FF00400CEE5E0EC010AEC
:10086000491EFBD1EFE538E0E0EC010A521EFBD156
:1008700008E692ED000AD1ED000ABCF1010CE2ECB1
:10088000010AA1EC010AF4D1B7E694ED000AD0ED1B
:10089000000A491EE4EC010AA0EC010AF5D1BDE60C
:1008A000D1ED000A401E80EE801AA1EC011AF7D1AA
:1008B000EEE6D3ED000A401E80EE801AA3EC011A8A
:1008C000F7D10EE7BCEC011AD1ED000A5B1E40EE39
:1008D000410AE1EC010AF5D14DE7B0EC011AD2ED85
:1008E000000A5B1E40EE410AE2EC010AF5D17BE70B
:1008F0002DE9F04F82B04668536801930588478818
:100900004B88002000900888874201BFB2F800C0E1
:100910006545528893421EBF6FF0020002B0BDE8E9
:10092000F08F9FED412A4FEA970EC7F3400B00BFAF
:10093000DDE9000202EB800A4A6898464FF00009A0
:10094000B0EE420AB4465FEA0E0025D092ED001ADE
:10095000DCED001A02EB8302DCED010A01EE810AF4
:1009600092ED001A02EB8302401ED2ED001A02EB58
:10097000830200EE810A9CED021ADCED030A0004FA
:100980000CF1100C000C01EE210A92ED001A02EBA2
:10099000830200EE810AD9D117F0030026D0ACF112
:1009A0000404A2EB830210F0010F08D002EB8302D3
:1009B000D4ED010A92ED001A241D00EE810A5FEACF
:1009C0000B0013D002EB830CD4ED010A9CED001A4E
:1009D00002EBC302401E00EE810AD4ED020A92ED42
:1009E000001A04F1080400EE810AEBD109F10100BC
:1009F000AAEC010A1FFA80F9486800EB8902A8F105
:100A000001001FFA80F8B8F1000F99D1009806EBA9
:100A10008706184480B20090681E05042D0C87D10B
:100A200002B00020BDE8F08F0000000070B405881F
:100A30000E884468D1F804C05368B54208D1408894
:100A40004988884201BF11888D425188884203D06D
:100A500070BC6FF00200704705FB00F1880827D0DA
:100A600094ED001ADCED000A94ED010ADCED011AA8
:100A700031EE601AD4ED020A70EE611A9CED020AA2
:100A800083ED001AC3ED011A94ED031ADCED031A8D
:100A900030EEC00A401E71EE610A83ED020A04F1D5
:100AA0001004C3ED030A03F110030CF1100CD7D1AD
:100AB00011F0030030D0B0F1004F30D200282BDD10
:100AC000211F1B1FACF1040210F0010F0AD091EDA1
:100AD000010AD2ED010A091D121D30EE600A83EDF4
:100AE000010A1B1D400817D091ED010AD2ED010A41
:100AF000401E30EE600A83ED010A91ED020AD2ED4C
:100B0000020A01F1080102F1080230EE600A83EDE9
:100B1000020A03F10803E7D170BC00207047B4EC6F
:100B2000010A401EFCEC010A30EE600AA3EC010A47
:100B3000F5D1F1E72DE9F04F02884768B0F802805F
:100B40004888D1F8049082B04FF0000A16468242DD
:100B500007BF098888456FF0020002B018BFBDE8E2
:100B6000F08F4FEA980B02EB42000190C8F340006F
:100B7000CDF8000009EB8A01BBF1000F33D00198DA
:100B800001EB820C01EB80043B46E64601EBC2051B
:100B90004FEA0B0093ED000A401E81ED000A93ED31
:100BA000010A01EB02118CED000A93ED020A0CEB35
:100BB000021C85ED000A93ED030A05EB021584ED96
:100BC000000A04EB021403F11003E3D10EEB8200E0
:100BD00000EB820000EB8201ABF10100504307EB18
:100BE0000B1701EB001118F0030C21D03B1FA1EBF8
:100BF00082011CF0010F06D093ED010A01EB820186
:100C00001B1D81ED000A009880B100BF93ED010A21
:100C100001EB820401EBC20184ED000A93ED020AAC
:100C2000401E81ED000A03F10803EFD107EB8C07AA
:100C30000AF101001FFA80FA701E0604360C99D1E1
:100C400002B00020BDE8F08F70B5064600F008F94C
:100C5000056806F10B0020F00704B4429CBF002099
:100C600070BD2B466A68BAB11068A04210D304F177
:100C7000080188423CBF5068586007D3516810197A
:100C800041601168091B016058601460101D70BD3F
:100C900013465268002AE7D12146284600F0E8F8BA
:100CA0000028DED170BD53EA020C00F069802DE906
:100CB000F04B4FF00006002B1FBFB3FA83F503FA89
:100CC00005F424FA05F65E4012BF1643B2FA82F527
:100CD00002FA05F4C5F120051EBF22FA05FC44EA1C
:100CE0000C04203556EA044C4FEA144418BF641C27
:100CF0004FF000084FF00009904271EB030C39D31C
:100D0000002919BFB1FA81F701FA07F6B0FA80F7A6
:100D100000FA07F6C7F120071EBF20FA07FC46EAD3
:100D20000C062037B6FBF4FCA7EB0507103F07F0D5
:100D30001F0BCBF120062CFA06F60CFA0BFB44BF76
:100D4000B3460026202FA4BF5E464FF0000B5BEA9F
:100D5000060C08BF4FF0010B19EB0B0948EB060816
:100D6000ABFB027C06FB02CC0BFB03CCC01B71EB84
:100D70000C01C1E70B46024641464846BDE8F08BF0
:100D800013B5084318BF4FF0FF300146AFF30080A2
:100D9000BDE81C40704710B5203AC0F00B80B1E8A8
:100DA0001850A0E81850B1E81850A0E81850203AA0
:100DB000BFF4F5AF5FEA027C24BFB1E81850A0E8A9
:100DC000185044BF18C918C0BDE810405FEA827CC3
:100DD00024BF51F8043B40F8043B08BF7047D207DA
:100DE00028BF31F8023B48BF11F8012B28BF20F87B
:100DF000023B48BF00F8012B704702F0FF0343EAB3
:100E0000032242EA024200F002B84FF0000200B5AD
:100E1000134694469646203922BFA0E80C50A0E81D
:100E20000C50B1F12001BFF4F7AF090728BFA0E8CB
:100E30000C5048BF0CC05DF804EB890028BF40F897
:100E4000042B08BF704748BF20F8022B11F0804FD9
:100E500018BF00F8012B70477047704770470000BB
:100E60000048704780050020704770477047704702
:100E700038B504460A4600206946AFF300800028D2
:100E800008BF38BD02460099204600F075F80120E1
:100E900038BD012000F08AB8F8B5AFF300800546F0
:100EA00000200C46102000BF0646A819A0420DD90C
:100EB000324669460020AFF30080070008BF00F00B
:100EC00075F80098A04218BF0546C419FFF7C8FF7F
:100ED00005600746F01D20F007004619284600F07F
:100EE0000AF8B44208BFF8BDA21B31463868BDE815
:100EF000F84000F041B800210160C0E901107047DE
:100F00001020704770B50446051FFFF7A9FF006861
:100F1000002C14BF446870BD002C18BFAC423CBF0D
:100F200020466468F8D301680A18AA4218BF4560D1
:100F300003D12A6805461144016028684119A1427D
:100F40001CBF6C6070BD61686960216808442860DE
:100F500070BD10B500F00CF8006810BD10B5044667
:100F600000F006F8046010BD0048704778050020C6
:100F70000048704778050020034640688C460028EA
:100F800018BF88423CBF03464068F8D3186818442D
:100F9000884207D00CF1030020F00700001D411A21
:100FA000521A0146081D0A60FFF7ACBF10B500F0E9
:100FB00039F8BDE8104000F02FB870477546FFF7CC
:100FC000D3FFAE4605006946534620F0070085462C
:100FD00018B020B5FFF75AF9BDE820404FF00006E1
:100FE0004FF000074FF000084FF0000BAC46ACE8A4
:100FF000C009ACE8C009ACE8C009ACE8C00921F000
:1010000007018D46704710B50446AFF300802046B7
:10101000BDE81040FFF725B9002801D000F02AB83C
:101020007047000010B5012805D0002103A000F092
:1010300027F8012010BD09A1F8E7000053494752E5
:10104000544D454D3A204F7574206F662068656198
:1010500070206D656D6F7279000000003A20486560
:101060006170206D656D6F727920636F727275703B
:101070007465640001491820ABBEFEE7260002003B
:1010800070B505460C460A2000E06D1C00F011F812
:1010900035B128780028F8D102E0641C00F009F886
:1010A00014B120780028F8D1BDE870400A20AFF3D1
:1010B000008008B569468DF800000320ABBE08BD6E
:1010C00080B50020C4F202001021012203F04CFA86
:1010D00080BD000080B50020C4F202001021002273
:1010E00003F042FA80BD000080B588B000208DF882
:1010F0001E00FFF7EFFF8020049000F0D1FA55208A
:10110000059000F0CDFA059800F0CAFA8DF81E009F
:10111000FFF7D6FF9620069001F060FAFFF7DAFF9E
:10112000049800F0BDFA059800F0BAFA059800F0AE
:10113000B7FA8DF81E00FFF7C3FF069801F04EFACC
:10114000FFF7C8FF7E20B62100F01AFBFFF7B8FFBB
:10115000502001F031FAFFF7BDFF049800F0A0FA2B
:10116000059800F09DFA059800F09AFA8DF81E0097
:10117000FFF7A6FF069801F031FAFFF7ABFF0498DE
:1011800000F08EFA059800F08BFA059800F088FAC6
:101190008DF81E00FFF794FF069801F01FFA9DF8E6
:1011A0001E001E2804D0FFE7FF208DF81F005CE022
:1011B00000208DF81D00FFE79DF81D00052850DC7C
:1011C000FFE7FFF787FF9DF81D0000EB400240F2AC
:1011D0000000C2F2000003908118805C497800F0A2
:1011E000CFFAFFF76DFF9620029001F0F7F9FFF7B5
:1011F00071FF03989DF81D1001EB4101405C40F028
:10120000800000F04DFA5520019000F049FA019855
:1012100000F046FA8DF81E00FFF752FF029801F029
:10122000DDF903999DF81E009DF81D2002EB420296
:101230001144497888420DD0FFE79DF81D0000EB6E
:10124000400140F20000C2F20000084480788DF8AE
:101250001F000AE0FFE79DF81D0001308DF81D001A
:10126000AAE700208DF81F00FFE79DF81F0008B0D7
:1012700080BD000080B540F20040C4F202000122AF
:10128000114603F071F980BD80B540F20040C4F210
:1012900002000121002203F067F980BD80B586B00D
:1012A000002002908DF81600FFF7EEFF02980DF176
:1012B0001601039100F0E2F9FFF7DCFF962004909D
:1012C00001F08CF9FFF7E0FF0298039900F0D6F9DE
:1012D000FFF7D0FF049801F081F9FFF7D5FF142044
:1012E000B62100F04DFAFFF7C5FF502001F064F978
:1012F000FFF7CAFF0298039900F0C0F9FFF7BAFFA1
:10130000049801F06BF9FFF7BFFF0298039900F012
:10131000B5F9FFF7AFFF049801F060F99DF81600EA
:101320000F2804D0FFE7FF208DF8170053E00020BE
:101330008DF81500FFE79DF81500052847DCFFE74D
:10134000FFF7A2FF9DF8150000EB400240F2741079
:10135000C2F2000001908118805C497800F010FA18
:10136000FFF788FF9620009001F038F9FFF78CFF17
:1013700001989DF8151001EB4101405C0DF116013B
:1013800000F07CF9FFF776FF009801F027F901994A
:101390009DF816009DF8152002EB42021144497891
:1013A00088420DD0FFE79DF8150000EB400140F2A8
:1013B0007410C2F20000084480788DF817000AE02B
:1013C000FFE79DF8150001308DF81500B3E7002008
:1013D0008DF81700FFE79DF8170006B080BD0000EC
:1013E00080B584B00390002002900190FFF772FE58
:1013F000922000F055F9122001A90091062200F078
:101400001BF9FFF75DFE9DF804009DF8051040EA0A
:101410000120039908849DF806009DF8071040EA12
:101420000120039948849DF808009DF8091040EABE
:1014300001200399888440F21400C2F2000090ED6C
:10144000000A0399B1F9202001EE102AB8EEC11A62
:1014500020EE010A81ED010A90ED000A0399B1F92D
:10146000222001EE102AB8EEC11A20EE010A81ED09
:10147000020A90ED000A0398B0F9241001EE101A48
:10148000B8EEC11A20EE010A80ED030AFFF722FE32
:10149000A22000F005F900992220022200F0CCF8E9
:1014A000FFF70EFE9DF804009DF80510C00040EA0D
:1014B0005110039988850398B0F92C00B0F5806F1E
:1014C00006DBFFE70399888DA0F500608885FFE7BC
:1014D0000398B0F92C1000EE101AB8EEC00AB4EE62
:1014E000001A20EE010AB3EE071A30EE010A80ED71
:1014F000070AFFF7C9FE002001A9082200F09CF8A6
:10150000FFF7B8FE9DF804000F2819D1FFE79DF8FA
:1015100006009DF8071040EA01200399C8849DF851
:1015200008009DF8091040EA0120039908859DF8FC
:101530000A009DF80B1040EA012003994885FFE757
:1015400040F21800C2F2000090ED000A0399B1F9D0
:10155000262001EE102AB8EEC12A91ED0C1A20EED9
:10156000020A30EE410A81ED040A90ED000A039967
:10157000B1F9282001EE102AB8EEC12A91ED0D1A1A
:1015800020EE020A30EE410A81ED050A90ED000AD4
:101590000398B0F92A1001EE101AB8EEC12A90EDA6
:1015A0000E1A20EE020A30EE410A80ED060A04B05F
:1015B00080BD000080B582B000208DF80700FFE7F5
:1015C000FFF792FD01469DF8070008438DF80700DC
:1015D000FFF764FE01469DF8070008438DF80700F9
:1015E000022000F0E9FFFFE79DF807000028E7D19F
:1015F000FFE740F2D850C2F2000000F003F802B05A
:1016000080BD000081B00090009948F28910CBF6AF
:10161000E320086300994BF69040CBF65F304863B7
:1016200000994DF2A140CBF6A720886300990120D4
:10163000087001B07047000080B584B08DF80F00CD
:1016400002918DF807209DF80F0040F0800000F017
:1016500027F8FFE79DF8070070B1FFE7552000F07D
:101660001FF8029908700298013002909DF8070057
:1016700001388DF80700EDE704B080BD80B582B079
:101680008DF8070000919DF8070040F0800000F001
:1016900007F8552000F004F80099087002B080BDEA
:1016A00080B582B08DF8070000208DF806006946ED
:1016B0004FF47A70086042F68C30C2F200000DF1EF
:1016C00007010DF10602012305F03EF89DF8060022
:1016D00002B080BD80B582B08DED010ADDED010A5A
:1016E00040F6C450C2F200009FED220A0EF0FAFD4F
:1016F000FFE740F6C450C2F2000090ED0A0A9FEDE9
:101700001E1AB4EE410AF1EE10FA09DDFFE740F6C9
:10171000C451C2F200010020C4F2FA40886217E00E
:1017200040F6C450C2F2000090ED0A0A9FED131A71
:10173000B4EE410AF1EE10FA09DAFFE740F6C451BF
:10174000C2F200010020CCF2FA408862FFE7FFE716
:10175000FFE740F6C450C2F2000090ED0A0A42F6DC
:101760002C40C2F200000068BCEEC00A80ED0D0AF9
:1017700002B080BD000020420000FA440000FAC41C
:1017800080B582B08DF807008DF806109DF807002F
:10179000FFF786FF9DF80600FFF782FF02B080BDCD
:1017A00080B59AB010A804902821FFF72EFB049969
:1017B0000122189200200590169017921090119017
:1017C0001290139015901490199042F23850C2F272
:1017D000000001F037FB18B1FFE700F025FFFFE73D
:1017E00042F23850C2F20000029002F0F9F802987A
:1017F000022101F051FA06A803902821FFF705FB0A
:10180000039901220E9200200C900D9206900790F1
:10181000089009900E200B900A920F9042F26050AF
:10182000C2F2000001F00EFB18B1FFE700F0FCFE71
:10183000FFE742F26050C2F20000019002F0D0F8DF
:101840000198102101F028FA1AB080BD80B582B04D
:1018500042F64C50C2F20000016804316B4624226B
:101860001A6040F66852C2F2000202F124030AF044
:10187000EFFC02B080BD000080B582B042F62C4083
:10188000C2F200000021019105F044FF019942F6E7
:10189000E430C2F2000005F03DFF40F6D86000F0F1
:1018A00047FB02B080BD0000FFE7FEE780B542F2D3
:1018B0003850C2F2000001F0A5FC80BD80B582B0B6
:1018C0000190009101980068112808D1FFE7009865
:1018D00040F22011C2F2000100F0C0FD21E00198A9
:1018E000006840F2013188421AD1FFE70098017880
:1018F000407840EA012040F26461C2F20001A1F8A0
:10190000A40000988278C07840EA0220A1F8AE00D6
:1019100000980079002818BF012081F8B000FFE787
:10192000FFE702B080BD000080B542F26050C2F215
:10193000000001F067FC80BD80B542F26050C2F249
:10194000000001F05FFC80BD80B584B0039002917F
:1019500003980068122808D1FFE7029840F2E801D6
:10196000C2F2000100F07AFD15E00398029940F2FE
:101970002002C2F200020192283200F009FB019A13
:1019800003980299503200F003FB019A03980299E0
:1019900000F0FEFAFFE704B080BD000080B586B01D
:1019A00005904FF416700EF0E9FEFFE70EF018FFF9
:1019B00042F63061C2F20001086040F26461C2F296
:1019C00000010291CA7840F22040C2F20000027782
:1019D0008A7842774A7982770A79C277CA7980F819
:1019E0002020897980F821100EF012F9029890F8E1
:1019F0006C00400140F25451C2F2000103918B7A15
:101A0000CA7A91F816C00CF0010C40EA0C1040EABA
:101A10008300024340F2FC30C2F2000004900277DF
:101A2000CA7942778A79827742F24C22C2F2000266
:101A3000127802F00102C277CA7C80F820200A7A6C
:101A400080F821204A7D80F82220097D80F823102B
:101A50000EF0DEF800F024F940F22270C2F200002D
:101A60000078C00748B3FFE740F26460C2F20000AC
:101A7000009090ED172A40F2B820C2F20000DFED8E
:101A8000121ACDED011AB0EE610AF0EE610AB0EE65
:101A9000611A00F0C5FB0098DDED011A90ED182ADF
:101AA00040F23050C2F20000B0EE610AF0EE610A7E
:101AB000B0EE611A00F0B4FB02E000F0A3F8FFE71B
:101AC00001200EF05BFE71E70000000084B08DF88D
:101AD0000F000291ADF806209DF80F00014600911D
:101AE00023281DD80099DFE801F012131415161BE6
:101AF0001B1B1B1B1B1B1B1B1B1B1B1B1B1B1B1B36
:101B00001B1B1B1B1B1B1B1B1B1B1718191A08E07D
:101B100007E006E005E004E003E002E001E000E0A9
:101B2000FFE7002004B070470020704780B582B006
:101B300042F25C20C2F20000009041F64C21C2F259
:101B40000001002201920AF06BFF009841F24C2143
:101B5000C2F200010AF046FF019802B080BD000009
:101B600080B584B0039002910398029907F018FEA3
:101B7000039942F25C20C2F2000001900AF032FFA9
:101B800001980AF0D5FE002004B080BD83B0029019
:101B900001918DF8032000208DF802009DF90200CC
:101BA00003B0704780B586B00490ADF80E100020E9
:101BB0008DF80D0042F25C20C2F20000D0F8BC02A9
:101BC00002900298D0F8140220B1FFE701208DF8AE
:101BD000170013E00499BDF80E2042F25C20C2F217
:101BE000000001900AF01CFF01980BF023F88DF81B
:101BF0000D009DF80D008DF81700FFE79DF8170008
:101C000006B080BD80B540F22010C2F2000000781E
:101C1000C007F0B1FFE740F2F871C2F200011E20E8
:101C2000087040F23050C2F2000000F0F5FBFFE710
:101C300040F2F870C2F200000078012808DBFFE7EC
:101C400040F2F871C2F20001087801380870EFE73D
:101C5000FFE740F2E800C2F200000078C007F0B1F0
:101C6000FFE740F2F871C2F200011E20087040F256
:101C7000B820C2F2000000F0CFFBFFE740F2F8709E
:101C8000C2F200000078012808DBFFE740F2F8719B
:101C9000C2F20001087801380870EFE7FFE780BD65
:101CA00040F22010C2F200008078C9280ADBFFE76A
:101CB00040F22011C2F200018878013888700020BB
:101CC000087008E040F22011C2F200010020887084
:101CD00001200870FFE740F2E800C2F200008078BF
:101CE000C9280ADBFFE740F2E801C2F20001887868
:101CF000013888700020087008E040F2E801C2F264
:101D000000010020887001200870FFE740F22010D9
:101D1000C2F20000007800F0010040F2E801C2F2D7
:101D20000001097801F00101084438B9FFE740F2E9
:101D30002271C2F200010120087006E040F2227117
:101D4000C2F2000100200870FFE7704781B00090E8
:101D500040F25450C2F20000807DC007C8B9FFE7CE
:101D600040F25450C2F20000807A01280CD1FFE703
:101D700040F25450C2F20000C07A012804D1FFE7BB
:101D800000990120087003E0009900200870FFE727
:101D900003E0009902200870FFE701B070470000DF
:101DA00080B584B003900020029000F03FF8FFE778
:101DB0000EF016FD029040F26460C2F20000019045
:101DC000FFF7C4FF019800F05DFD019800F03EFDB3
:101DD000019800F0EFFD019800F086FC019800F0FA
:101DE000A5FD019809F0B6F9019809F08BFA019860
:101DF00009F06EFA019809F0D7FA019809F046F94E
:101E0000019890F8B00000F0010000EE100AB8EE62
:101E1000400A9FED051AF0EE410A0DF063FF02A89B
:101E200001210EF0BFFCC3E70000000080B588B0C0
:101E300040F69C00C2F20000009040F2E012C2F2B4
:101E400000020121079107F047FF009807995030E1
:101E500040F2F812C2F2000207F03EFF079940F686
:101E60001C30C2F20000019040F28822C2F200024F
:101E700007F032FF01980799503040F2A022C2F2D9
:101E8000000207F029FF079940F2FC70C2F200003F
:101E9000029040F2B012C2F2000207F01DFF029859
:101EA0000799503040F2C812C2F2000207F014FF46
:101EB000079940F67C20C2F20000039040F25822BD
:101EC000C2F2000207F008FF03980799503040F271
:101ED0007022C2F2000207F0FFFE079940F63C10A4
:101EE000C2F20000049040F21022C2F200020592F9
:101EF00007F0F2FE0498059A0799503007F0ECFEBF
:101F0000079940F6DC10C2F20000069040F2282249
:101F1000C2F2000207F0E0FE06980799503040F246
:101F20004022C2F2000207F0D7FE08B080BD0000D8
:101F300080B582B0ADF80600BDF8062042F6E43068
:101F4000C2F2000000210DF013FF02B080BD0000BE
:101F500081B00090009890F82000512812DBFFE734
:101F60000099888C013088840098808CC92808DB0F
:101F7000FFE70099022081F826000099002088845C
:101F8000FFE703E0009900208884FFE701B0704775
:101F900080B584B003900291019203980068019982
:101FA0008968884201D0FFE74FE002988079019963
:101FB00081F8200002980178407840EA01200199D8
:101FC000C88202988178C07840EA0120019988820D
:101FD00002980179407940EA0120019948820198EC
:101FE000FFF7B6FF019800780146009140B1FFE786
:101FF0000098012810D0FFE70098022818D023E0AD
:1020000001981030B7EE000A4FF400510DF0E2FFD6
:10201000019880ED070A18E0019810309FED0D0A35
:102020004FF400510DF0D6FF019880ED070A0CE047
:10203000019810309FED060A4FF400510EF096F80B
:10204000019880ED070A00E0FFE704B080BD00BF03
:10205000000010422CA0994180B542F24860C2F2C3
:10206000000001F0B7FD80BD80B542F28850C2F299
:10207000000001F0AFFD80BD80B542F2E850C2F231
:10208000000001F0A7FD80BD82B0019001980078AA
:1020900010384AF6AB21CAF6AA21A0FB01100009AC
:1020A0000090009942F28050C0F60100405C019916
:1020B000C8650098042807D3FFE70199086804223F
:1020C00062F30900886506E00199086840F2FF3272
:1020D00090438865FFE70198806D02B0704700006B
:1020E00086B0059000208DF813000598806A039053
:1020F0000598806910BBFFE70398029003281BD85E
:102100000299DFE801F0020D0218059890F82F00FF
:10211000C00720B1FFE701208DF81300FFE70CE0B6
:102120000598C06AB0F1C07F04D1FFE701208DF8A7
:102130001300FFE701E000E0FFE745E00598806954
:10214000B0F5005F25D1FFE70398019003281ED862
:102150000199DFE801F00206021101208DF8130059
:1021600016E0059890F82F00C00720B1FFE7012086
:102170008DF81300FFE70BE00598C06AB0F1C07F4F
:1021800004D1FFE701208DF81300FFE700E0FFE72F
:1021900019E003980090032804D3FFE70098032870
:1021A00004D00EE001208DF813000BE0059890F8A4
:1021B0002F00C00720B1FFE701208DF81300FFE7D3
:1021C00000E0FFE7FFE7FFE79DF8130006B0704768
:1021D00084B003900291019200930398016808680B
:1021E00020F48020086000980399096848600398EB
:1021F0008068402809D1FFE7019803990968886041
:10220000029803990968C86008E002980399096870
:102210008860019803990968C860FFE704B07047B7
:1022200080B58AB009908DED080ACDED070A8DEDD5
:10223000061ACDED051A8DED042A0998406802288A
:102240004DD1FFE79DED080ADFED6D0A9FED6D1A98
:1022500010200EF0EBF940F21C71C2F20001088070
:102260009DED070AFBEE0E0AB3EE0E1A0C2003904A
:102270000EF0DCF90146039840F22072C2F200022F
:1022800011809DED060ADFED620ACDED020A9FED99
:10229000611A0EF0CBF9DDED020A0146039840F217
:1022A0001A72C2F2000211809DED050AB1EE041A05
:1022B0000EF0BCF90146039840F21872C2F2000217
:1022C00011809DED040AFAEE040AB2EE041A0EF033
:1022D000ADF940F21E71C2F20001088052E0099887
:1022E000406801284DD1FFE79DED080ADFED440A63
:1022F0009FED441A10200EF099F940F21C71C2F2C1
:10230000000108809DED070ADFED3F0A9FED3F1AAF
:102310000C2001900EF08AF90146019840F22072DB
:10232000C2F2000211809DED060ADFED390ACDED03
:10233000000A9FED381A0EF079F9DDED000A01462A
:10234000019840F21A72C2F2000211809DED050A56
:10235000B1EE041A0EF06AF90146019840F21872C3
:10236000C2F2000211809DED040AFAEE040AB2EEF8
:10237000041A0EF05BF940F21E71C2F200010880EF
:10238000FFE7FFE740F21C70C2F200004178099AB3
:10239000117700780999487740F22070C2F2000066
:1023A00001880909099A9177028840F21A70C2F2ED
:1023B0000000417841EA0211099AD1770078099921
:1023C00081F8200040F21870C2F20000018809096B
:1023D000099A82F82110028840F21E70C2F20000B1
:1023E000417841EA0211099A82F82210007809998D
:1023F00081F8230009980DF00BFC0AB080BD00BFE6
:10240000DC0F49C0DC0F4940000034C200003442F8
:10241000000000000000FA4380B582B001900199ED
:10242000FF20087701994877019988770199C87743
:10243000019981F82000019981F82100019981F822
:1024400022000199FC2081F8230001980DF0E0FBA7
:1024500002B080BD81B0009001B0704780B584B0FB
:10246000039002910398007800F00F0002994870E1
:102470000299FA208870039800780009029948822E
:1024800003984178807840EA012002998882039974
:10249000C8780979000140EA11100299C8820398AE
:1024A0000179407901F00F0140EA01200299088387
:1024B00002984068022826D1FFE70298008BBAEE06
:1024C000040AF2EE040A0C2101910EF093FE029828
:1024D00080ED090A0298808A9FED320ADFED320A08
:1024E00010210EF087FE0199029880ED070A0298EC
:1024F000C08ABBEE0E0AF3EE0E0A0EF07BFE0298C7
:1025000080ED080A2BE002984068012826D1FFE7F9
:102510000298008BBAEE040AF2EE040A0C21009134
:102520000EF068FE029880ED090A0298808A9FEDFD
:102530001D0ADFED1D0A10210EF05CFE00990298C5
:1025400080ED070A0298C08A9FED180ADFED180A8D
:102550000EF050FE029880ED080AFFE7FFE70398AF
:10256000807900EE100AB8EE400A029880ED0A0A5F
:102570000398C07900EE100AB8EE400A029880ED88
:102580000B0A0299FA2088700299002008700298BC
:10259000B0F9120020B1FFE70298FFF75BFFFFE7F9
:1025A00004B080BDDC0F49C0DC0F4940000034C2DC
:1025B000000034427047000080B582B0019001F005
:1025C000EBFF0090FFE701F0E7FF0099401A019947
:1025D000884201D2FFE7F6E702B080BD80B582B045
:1025E000019005F0E7FD0090FFE705F0E3FD00999D
:1025F000401A0199884201D2FFE7F6E702B080BD98
:1026000080B582B00190FFE740F25450C2F2000062
:1026100008F054FB01200EF0B1F8F5E780B520205A
:1026200001F0AAFD80BD000072B6FFE7FEE70000E2
:1026300084B08DED030A9DED030AB6EE001A20EE7C
:10264000010A8DED020A039801900198009000990B
:1026500045F68620C5F63770A0EB61000090009823
:1026600001909DED010A9DED021A21EE001A21EE66
:10267000002AB7EE081A31EE421A20EE010A8DED5B
:10268000010A9DED010A04B07047000080B584B0D6
:1026900047F61020C1F6FF700068039047F614203B
:1026A000C1F6FF700068029047F61820C1F6FF706F
:1026B000006801900199039808440390039888B139
:1026C000FFE7039840F21451C2F200010091023179
:1026D000082205F0B9FE009902981231042205F093
:1026E000B3FEFFE704B080BD80B586B005900598C5
:1026F000007A012816D1FFE7059890ED060AD0ED83
:10270000130A40F2FC70C2F2000004900DF0EAFDE2
:10271000049890ED0A0A0599D1ED150A50300DF094
:10272000E1FD1BE00598007A022816D1FFE7059825
:1027300090ED060AD0ED130A40F69C00C2F20000AC
:1027400003900DF0CFFD039890ED0A0A0599D1EDA5
:10275000150A50300DF0C6FDFFE7FFE7059890ED34
:10276000070A90ED141A30EE410A80ED030A05982D
:1027700090ED030A9FED301AB4EE410AF1EE10FA23
:102780000ADBFFE7059890ED030A9FED2E1A30EE65
:10279000010A80ED030A15E0059890ED030A9FED0C
:1027A000271AB4EE410AF1EE10FA0ADCFFE70598A9
:1027B00090ED030A9FED221A30EE010A80ED030A24
:1027C000FFE7FFE70598007A012816D1FFE7059893
:1027D00090ED030A40F67C20C2F200000290DFED8B
:1027E0001A0A0DF07FFD029890ED0A0A0599D1EDC5
:1027F000160A50300DF076FD1BE00598007A02288D
:1028000016D1FFE7059890ED030A40F61C30C2F29E
:1028100000000190DFED0C0A0DF064FD019890EDD1
:102820000A0A0599D1ED160A50300DF05BFDFFE75D
:10283000FFE706B080BD00BF00003443000034C392
:102840000000B4430000B4C30000000081B0009059
:1028500040F28870C2F20000C168009AD1644168F9
:10286000009A1165C16A009A5165006B00998865EC
:1028700040F22000C2F20000C0690099C1F8840053
:1028800001B0704781B0009040F25450C2F2000095
:10289000807DC007002843D1FFE70098007838BB4F
:1028A000FFE740F25450C2F20000807A022804D1BF
:1028B000FFE700990020087219E040F25450C2F27C
:1028C0000000807A032804D1FFE7009901200872F4
:1028D0000CE040F25450C2F20000807A012804D18A
:1028E000FFE7009902200872FFE7FFE7FFE716E025
:1028F00000980078012811D1FFE740F25450C2F24D
:102900000000C07C012804D1FFE700990220087272
:1029100003E0009901200872FFE7FFE7FFE703E00B
:10292000009900200872FFE701B0704781B0009065
:102930000098007AB0B3FFE70098007A02281BD114
:10294000FFE740F61C30C2F2000090ED1E0A00982E
:1029500090ED0B1A30EE010A80ED180A40F69C004B
:10296000C2F2000090ED1E0A009890ED0A1A30EEB7
:10297000010A80ED170A14E00098007A01280FD1AF
:10298000FFE740F67C20C2F20000806F00990866E5
:1029900040F2FC70C2F20000806F0099C865FFE74A
:1029A000FFE705E00099002008660099C865FFE789
:1029B00001B0704781B0009000980078002858D18D
:1029C000FFE70098007A012826D1FFE740F2545033
:1029D000C2F20000B0F9021000EE101AB8EEC00A00
:1029E000009991ED061A9FEDA52A20EE020A30EE1D
:1029F000010A81ED060AB0F90000404200EE100A1B
:102A0000B8EEC00A009890ED071A20EE020A30EEE8
:102A1000010A80ED070A2BE00098007A02281AD1FB
:102A2000FFE7009890ED0F0ABFEE001AB4EE410ADE
:102A3000F1EE10FA07D0FFE70099086C8861009961
:102A4000486CC86106E00099086988610099486986
:102A5000C861FFE70BE00098007A38B9FFE70099FA
:102A6000C86C88610099086DC861FFE7FFE7FFE760
:102A700059E00098007801284DD1FFE70098007ACE
:102A8000012827D1FFE740F25450C2F20000B0F90C
:102A90000C10494200EE101AB8EEC00A009991EDF0
:102AA000071A9FED762A20EE020A30EE010A81ED28
:102AB000070AB0F90E00404200EE100AB8EEC00A54
:102AC000009890ED061A20EE020A30EE010A80ED21
:102AD000060A1FE00098007A02281AD1FFE7009842
:102AE00090ED0F0AB7EE001AB4EE410AF1EE10FABB
:102AF00007D0FFE70099086C88610099486CC861AD
:102B000006E000990869886100994869C861FFE793
:102B1000FFE7FFE706E00099C86C88610099086D3F
:102B2000C861FFE7FFE740F2E800C2F2000090ED65
:102B3000070A9FED531AB4EE410AF1EE10FA0FDDC9
:102B4000FFE740F2E800C2F2000090ED070A9FEDB7
:102B50004D1AB4EE410AF1EE10FA01DAFFE73FE058
:102B600040F2E800C2F2000090ED070A9FED441A1F
:102B7000B4EE410AF1EE10FA11DCFFE7009890ED97
:102B8000041A90ED060AB4EE410AF1EE10FA04DBE5
:102B9000FFE700990869886100E0FFE71FE040F265
:102BA000E800C2F2000090ED070A9FED361AB4EE7D
:102BB000410AF1EE10FA11DDFFE7009890ED041ADA
:102BC00090ED060AB4EE410AF1EE10FA04DCFFE7DC
:102BD00000990869886100E0FFE7FFE7FFE7FFE78A
:102BE000009890ED070A9FED281AB4EE410AF1EE25
:102BF00010FA0ADBFFE7009890ED070A9FED251A0F
:102C000030EE010A80ED070A15E0009890ED070A02
:102C10009FED1E1AB4EE410AF1EE10FA0ADCFFE74E
:102C2000009890ED070A9FED1A1A30EE010A80ED28
:102C3000070AFFE7FFE7009890ED041A90ED060AF7
:102C400030EE410ABAEE0E1A20EE010A80ED0A0AB1
:102C5000009890ED051A90ED070A30EE410AB2EEA9
:102C6000041A20EE010A80ED0B0A0099C869486138
:102C700000998869086101B0704700BF17B7D13962
:102C800014AE473FCDCCCC3F00003443000034C3EA
:102C90000000B4430000B4C384B0029001910298D4
:102CA00090F820008DF803009DF80300012805D05E
:102CB000FFE79DF8030002280AD1FFE7019A029876
:102CC000016848691043486100208DF80F0008E052
:102CD0000299486A40F48020486201208DF80F0074
:102CE000FFE79DF80F0004B07047000088B0069021
:102CF000059104920393069890F820008DF8070040
:102D000006980068806800900598806808B9FFE719
:102D100000E0FFE79DF80700012806D0FFE79DF8D7
:102D20000700022840F08080FFE79DF8030040077D
:102D300000280CD4FFE79DF803000007002806D404
:102D4000FFE79DF80300C006002864D5FFE7009860
:102D5000C0F3016002900299012088400399086045
:102D60000598806868B9FFE705980168C06840EA7F
:102D7000415006990968029A01EB0211C1F88001DD
:102D80000EE005994A688868C96840EAC2000843AD
:102D900006990968029A01EB0211C1F88001FFE768
:102DA0000598006906990968029A01EB0211C1F8B9
:102DB00084010598007D01280CD1FFE70698006882
:102DC000029900EB0111D1F8840140F48070C1F840
:102DD0008401FFE70498406806990968029A01EBAC
:102DE0000211C1F88C010498006806990968029ADA
:102DF00001EB0211C1F8880106980068029900EB06
:102E00000111D1F8800140F00100C1F880010020DB
:102E10008DF81F0011E00699486A40F400104862DE
:102E200001208DF81F0008E00699486A40F48020D0
:102E3000486201208DF81F00FFE79DF81F0008B0D1
:102E40007047000086B004900391049800680190D8
:102E5000049890F820008DF803009DF803000128E5
:102E600006D0FFE79DF80300022840F0B080FFE79E
:102E700046F20040C4F2000001900199D1F800022E
:102E800040F00100C1F800020199D1F8000220F4DD
:102E90007C50C1F800020398426A0199D1F80002FF
:102EA00040EA0220C1F800020398406900F01F01C7
:102EB000012088400290029A0199D1F81C029043A7
:102EC000C1F81C020398C069F0B9FFE7029A0199A2
:102ED000D1F80C029043C1F80C02039A9088D16893
:102EE000526940EA0140019901EBC201C1F8400278
:102EF000039A10889168526940EA0140019901EBF8
:102F0000C201C1F84402FFE70398C06901281ED13D
:102F1000FFE7029A0199D1F80C021043C1F80C02A4
:102F2000039A90881168526940EA0140019901EBC7
:102F3000C201C1F84002039A90899168526940EA3F
:102F40000140019901EBC201C1F84402FFE7039877
:102F5000806940B9FFE7029A0199D1F804029043D1
:102F6000C1F8040207E0029A0199D1F80402104363
:102F7000C1F80402FFE70398006940B9FFE7029A2D
:102F80000199D1F814029043C1F8140207E0029AA3
:102F90000199D1F814021043C1F81402FFE7039815
:102FA000006A012808D1FFE7029A0199D1F81C02B2
:102FB0001043C1F81C02FFE70199D1F8000220F08C
:102FC0000100C1F8000200208DF8170008E0049904
:102FD000486A40F48020486201208DF81700FFE71E
:102FE0009DF8170006B0704781B0009001B070479F
:102FF00086B00490039102920193049890F8200007
:103000008DF803009DF80300012806D0FFE79DF826
:103010000300022840F0E880FFE7039880B9FFE74B
:1030200004980068C068800748B9FFE70499486AB7
:1030300040F40010486201208DF81700DDE00FE039
:10304000049800680069800748B9FFE70499486A56
:1030500040F40010486201208DF81700CDE0FFE732
:1030600004980068039900EB0110D0F8B00100F05B
:103070000400029988600298806858B9FFE70498B4
:103080000068039900EB0110D0F8B001400D0299DF
:1030900008600AE004980068039900EB0110D0F87A
:1030A000B001C00802994860FFE7049800680399DE
:1030B00000EB0110D0F8B00100F002000299C860E6
:1030C00004980068039900EB0110D0F8B40100F0F7
:1030D0000F00082804D3FFE70299082008610BE0DD
:1030E00004980068039900EB0110D0F8B40100F0D7
:1030F0000F0002990861FFE704980068039900EB4C
:103100000110D0F8B40180B2000A029988610498D5
:103110000068039900EB0110D0F8B401000C02998B
:10312000486104980068039900EB0110D0F8B801D9
:103130000199087004980068039900EB0110D0F819
:10314000B801000A0199487004980068039900EBDF
:103150000110D0F8B801000C01998870049800683B
:10316000039900EB0110D0F8B801000E0199C87066
:1031700004980068039900EB0110D0F8BC01019994
:10318000087104980068039900EB0110D0F8BC01A5
:10319000000A0199487104980068039900EB011036
:1031A000D0F8BC01000C019988710498006803995B
:1031B00000EB0110D0F8BC01000E0199C871039812
:1031C00038B9FFE704980168C86840F02000C8607B
:1031D00006E004980168086940F020000861FFE7F4
:1031E00000208DF8170008E00499486A40F4802018
:1031F000486201208DF81700FFE79DF8170006B020
:103200007047000080B58AB00990002008900998A6
:10321000006840690790099800684068069009981E
:1032200000688068059009980068C0680490099853
:1032300000680069039009980068806902909DF811
:103240001C00C007002800F09480FFE79DF81400E0
:10325000C00758B3FFE709980168012088609DF80E
:1032600014008007002804D5FFE7099800F002FC4D
:103270001BE09DF814004007002805D5FFE70898DB
:1032800040F4006008900FE09DF81400000700284B
:1032900005D5FFE7089840F48050089003E00998AE
:1032A00000F0E4FBFFE7FFE7FFE7FFE79DF815000D
:1032B000C00760B3FFE7099801684FF48070886029
:1032C0009DF815008007002804D5FFE7099800F055
:1032D000D9FB1BE09DF815004007002805D5FFE746
:1032E000089840F4005008900FE09DF81500000782
:1032F000002805D5FFE7089840F48040089003E0D7
:10330000099800F0BBFBFFE7FFE7FFE7FFE79DF849
:103310001600C00760B3FFE7099801684FF48030DA
:1033200088609DF816008007002804D5FFE70998FB
:1033300000F0B0FB1BE09DF816004007002805D503
:10334000FFE7089840F4004008900FE09DF8160051
:103350000007002805D5FFE7089840F48030089062
:1033600003E0099800F092FBFFE7FFE7FFE7FFE7C4
:10337000FFE79DF81C000007002810D5FFE79DF827
:103380001000C006002809D5FFE7089840F4007037
:103390000890099801681020C860FFE7FFE79DF8D2
:1033A0001C00400700280FD5FFE79DF8100000071C
:1033B000002808D5FFE7099801680820C860099827
:1033C00000F0D6FAFFE7FFE79DF81C008007002811
:1033D0000BD5FFE709980068C068800720B1FFE7B8
:1033E000099800F0C9FAFFE7FFE79DF81C004006C6
:1033F000002810D5FFE79DF80C00C006002809D56D
:10340000FFE7089840F48060089009980168102050
:103410000861FFE7FFE79DF81C00800600280FD534
:10342000FFE79DF80C000007002808D5FFE7099882
:10343000016808200861099800F0B4FAFFE7FFE787
:103440009DF81C00C00600280BD5FFE7099800680E
:103450000069800720B1FFE7099800F0A7FAFFE7AD
:10346000FFE79DF81E00800700280FD5FFE79DF8B5
:103470001800C006002808D5FFE709980168102049
:103480004860099800F0A8FAFFE7FFE79DF81E00E2
:10349000C00778B1FFE79DF818000007002808D59D
:1034A000FFE70998016808204860099800F0F6FADB
:1034B000FFE7FFE79DF81D000006002840F18D8022
:1034C000FFE79DF818004007002840F18180FFE7E2
:1034D0009DF81D00C00750B1FFE79DF80800C00728
:1034E00028B1FFE7089840F001000890FFE79DF839
:1034F0001D00800700280BD5FFE79DF80800800716
:10350000002805D5FFE7089840F002000890FFE783
:103510009DF81D00400700280BD5FFE79DF8080027
:103520004007002805D5FFE7089840F00400089000
:10353000FFE79DF81D000007002848D5FFE79DF82C
:10354000080010F0700F42D0FFE7029800F0700002
:1035500001460191102814D0FFE70198202815D0CA
:10356000FFE70198302816D0FFE70198402817D0D0
:10357000FFE70198502818D0FFE70198602819D07C
:103580001DE0089840F00800089019E0089840F005
:103590001000089014E0089840F0200008900FE018
:1035A000089840F0400008900AE0089840F0800039
:1035B000089005E0089840F48070089000E0FFE76C
:1035C00009980168886920F070008861FFE7FFE7CB
:1035D0000998016804204860FFE7089848B1FFE7B0
:1035E000089A0999486A104348620998FFF7FCFC59
:1035F000FFE70AB080BD000080B584B00290029859
:1036000020B9FFE701208DF80F00E0E0029890F864
:10361000200020B9FFE7029800F0DEF8FFE70298EB
:103620000168086840F00100086000F0B5FF0190F3
:10363000FFE7029800684068C007A8B9FFE700F0FC
:10364000ABFF0199401A0B280DD3FFE70299486A96
:1036500040F4003048620299052081F820000120E2
:103660008DF80F00B3E0E4E702980168086820F0E5
:103670000200086000F090FF0190FFE702980068E8
:1036800040688007002815D5FFE700F085FF019905
:10369000401A0B280DD3FFE70299486A40F4003026
:1036A00048620299052081F8200001208DF80F0062
:1036B0008DE0E3E70298007E012807D1FFE702983A
:1036C0000168086840F08000086006E00298016820
:1036D000086820F080000860FFE70298407E01281B
:1036E00007D1FFE702980168086840F040000860D1
:1036F00006E002980168086820F040000860FFE7D3
:103700000298807E012807D1FFE7029801680868C7
:1037100040F02000086006E002980168086820F088
:1037200020000860FFE70298C07E012807D1FFE76C
:1037300002980168086820F01000086006E002980E
:103740000168086840F010000860FFE70298007FF9
:10375000012807D1FFE702980168086840F00800D7
:10376000086006E002980168086820F00800086018
:10377000FFE70298407F012807D1FFE70298016820
:10378000086840F00400086006E0029801680868D4
:1037900020F004000860FFE7029B19685A689868E7
:1037A000D3F80CC040EA0C00D3F810C040EA0C007B
:1037B0005B691843013A1043C861029900204862CE
:1037C000029A012182F820108DF80F00FFE79DF882
:1037D0000F0004B080BD000080B592B011900020B1
:1037E00010900F900E900D900C901198006846F27A
:1037F0000041C4F20001884249D1FFE740F2247041
:10380000C2F200000168013101600068012812D194
:10381000FFE7FFE700200B9043F64000C4F20200F0
:10382000016841F000710160006800F000700B90C9
:103830000B98FFE7FFE7FFE700200A9043F6300010
:10384000C4F20200016841F008010160006800F064
:1038500008000A900A98FFE703200C9002210D91BE
:10386000002105910E910F900920109040F6004024
:10387000C4F202000CA900F09BFC059A14200690EB
:10388000052100F065FF069800F058FF6EE01198E2
:10389000006846F60001C4F20001884265D1FFE7E6
:1038A000FFE70020099043F64000C4F202000168DF
:1038B00041F080610160006800F080600990099823
:1038C000FFE740F22470C2F200000168013101609C
:1038D0000068012812D1FFE7FFE70020089043F6B7
:1038E0004000C4F20200016841F00071016000680C
:1038F00000F0007008900898FFE7FFE7FFE700205E
:10390000079043F63000C4F20200016841F0020162
:103910000160006800F0020007900798FFE7602050
:103920000C9002200D90002003900E9003200F9029
:103930000920109040F20040C4F202000CA900F0EF
:1039400037FC039A402001900521029100F000FF0E
:10395000019800F0F3FE0299039A4120049000F0D0
:10396000F7FE049800F0EAFEFFE7FFE712B080BD23
:1039700081B0009001B0704780B584B00390039887
:1039800040F21461C2F200010A1D029201F120030B
:1039900001930021FFF72CFB01990298FDF78EFFA0
:1039A00004B080BD81B0009001B0704780B584B094
:1039B0000390039840F23C61C2F200010A1D02929A
:1039C00001F1200301930121FFF712FB01990298F5
:1039D000FDF7BAFF04B080BD81B0009001B0704720
:1039E00080B584B00290029890F8200001282FD171
:1039F000FFE70299022081F8200002980168086818
:103A000020F00100086000F0C7FD0190FFE7029878
:103A100000684068C007A8B1FFE700F0BDFD01994C
:103A2000401A0B280DD3FFE70299486A40F4003092
:103A300048620299052081F8200001208DF80F00CE
:103A40000FE0E4E70299002048628DF80F0008E0DB
:103A50000299486A40F40020486201208DF80F0066
:103A6000FFE79DF80F0004B080BD000081B000901A
:103A700001B0704781B0009001B0704781B00090F4
:103A800001B0704781B0009001B0704781B00090E4
:103A900001B0704781B0009001B0704781B00090D4
:103AA00001B0704780B584B002900298806D01909B
:103AB00000F072FD0090029890F8350002280DD0B9
:103AC000FFE7029980204865FFE70299002081F80E
:103AD0003400FFE701208DF80F0055E002980168DF
:103AE000086820F01600086002980168486920F014
:103AF000800048610298006C20B9FFE70298806C52
:103B000038B1FFE702980168086820F008000860F3
:103B1000FFE702980168086820F001000860FFE7ED
:103B2000029800680068C007C8B1FFE700F034FDE4
:103B30000099401A062811D3FFE702992020486512
:103B40000299032081F83500FFE70299002081F8EF
:103B50003400FFE703208DF80F0015E0E0E702983E
:103B6000C16D3F208840019988600299012081F849
:103B70003500FFE70299002081F83400FFE7FFE7F6
:103B800000208DF80F00FFE79DF80F0004B080BD06
:103B900082B00090009890F83500022807D0FFE727
:103BA00000998020486501208DF807000EE00099FB
:103BB000052081F8350000980168086820F00100B0
:103BC0000860FFE700208DF80700FFE79DF8070079
:103BD00002B0704780B586B005900020039040F297
:103BE0004440C2F20000006848F2B511C1F64E31FF
:103BF000A0FB0110800A02900598806D0190019849
:103C00000068049004980599C96DC8400007002811
:103C10001AD5FFE70598006800684007002812D50C
:103C2000FFE705980168086820F00400086005981F
:103C3000C16D08208840019988600599486D40F061
:103C400001004865FFE7FFE704980599C96DC84082
:103C5000C007A0B1FFE7059800684069000600288A
:103C60000CD5FFE70598C16D012088400199886057
:103C70000599486D40F002004865FFE7FFE70498AA
:103C80000599C96DC8404007002814D5FFE705987D
:103C900000680068800700280CD5FFE70598C16D13
:103CA00004208840019988600599486D40F004001F
:103CB0004865FFE7FFE704980599C96DC840C0064D
:103CC000002847D5FFE7059800680068000700282E
:103CD0003FD5FFE70598C16D1020884001998860A5
:103CE000059800680068400300281AD5FFE705988A
:103CF000006800680003002809D4FFE70598006CFD
:103D000020B1FFE70598016C8847FFE708E00598B8
:103D1000806C20B1FFE70598816C8847FFE7FFE7DB
:103D200016E0059800680068C005002807D4FFE782
:103D300005980168086820F008000860FFE705980A
:103D4000006C20B1FFE70598016C8847FFE7FFE7AB
:103D5000FFE7FFE704980599C96DC8408006002871
:103D600040F18D80FFE7059800680068C0060028D4
:103D700040F18480FFE70598C16D202088400199BB
:103D80008860059890F83500052834D1FFE705983C
:103D90000168086820F01600086005980168486905
:103DA00020F0800048610598006C20B9FFE7059875
:103DB000806C38B1FFE705980168086820F00800BA
:103DC0000860FFE70598C16D3F2088400199886031
:103DD0000599012081F83500FFE70599002081F859
:103DE0003400FFE70598006D20B1FFE70598016DED
:103DF0008847FFE77BE005980068006840030028DB
:103E00001AD5FFE70598006800680003002809D468
:103E1000FFE70598406C20B1FFE70598416C8847A3
:103E2000FFE708E00598C06B20B1FFE70598C16B7C
:103E30008847FFE7FFE720E0059800680068C005B5
:103E4000002811D4FFE705980168086820F01000E9
:103E500008600599012081F83500FFE705990020E9
:103E600081F83400FFE7FFE70598C06B20B1FFE75A
:103E70000598C16B8847FFE7FFE7FFE7FFE7059875
:103E8000406DA0B3FFE70598406DC00730B3FFE772
:103E90000599052081F8350005980168086820F02B
:103EA00001000860FFE703980130039002998842FF
:103EB00001D9FFE707E0FFE7059800680068C00741
:103EC0000028F0D1FFE70599012081F83500FFE7D0
:103ED0000599002081F83400FFE7FFE70598C06CE2
:103EE00020B1FFE70598C16C8847FFE7FFE706B000
:103EF00080BD000080B586B004900020039000F0E3
:103F00004BFB0290049820B9FFE701208DF81700C1
:103F1000A3E00498406A08B1FFE7FFE70499022094
:103F200081F83500FFE70499002081F83400FFE7AD
:103F300004980168086820F001000860FFE7049811
:103F400000680068C00790B1FFE700F025FB029908
:103F5000401A06280AD3FFE70499202048650499EF
:103F6000032081F835008DF8170076E0E7E7049824
:103F7000006800680390039848F23F01CFF21001F7
:103F800008400390049900914868D1F808C0CB68B4
:103F90000A6940EA0C00184310434A6910438A69D1
:103FA0001043CA691043096A014303980843039008
:103FB0000498406A042808D1FFE70499C86A096B8D
:103FC0000143039808430390FFE7039804990968A5
:103FD00008600498006840690390039820F0070087
:103FE00003900498416A0398084303900498406A38
:103FF00004281AD1FFE70498816A039808430390C4
:104000000498C06A80B1FFE70498FEF769F850B1E0
:10401000FFE70499402048650499012081F83500A4
:104020008DF8170019E0FFE7FFE703980499096886
:1040300048610498FEF728F801900498C16D3F206C
:10404000884001998860049900204865049A0121FC
:1040500082F835108DF81700FFE79DF8170006B0BD
:1040600080BD000080B588B006900591049203934E
:1040700000208DF80B000698806D0190FFE70698F0
:1040800090F83400012804D1FFE702208DF81F00CA
:1040900045E00699012081F83400FFE7FFE7069824
:1040A00090F8350001282BD1FFE70699022081F80E
:1040B000350006990020486506980599049A039BE7
:1040C000FEF786F80698C16D3F2088400199886008
:1040D00006980168086840F0160008600698006CB1
:1040E00038B1FFE706980168086840F008000860EA
:1040F000FFE706980168086840F00100086009E0E1
:10410000FFE70699002081F83400FFE702208DF8D0
:104110000B00FFE79DF80B008DF81F00FFE79DF8EF
:104120001F0008B080BD000080B584B0039000F08F
:1041300033FA0290039801900198013048B1FFE7EB
:1041400040F26C50C2F200000178019808440190DE
:10415000FFE7FFE700F020FA0299401A0199884230
:1041600001D2FFE7F6E704B080BD000081B0ADF8F2
:10417000020001B07047000080B582B0ADF80600C3
:1041800043F61440C4F201000068BDF8061008426E
:104190000CD0FFE7BDF8060043F61441C4F201015C
:1041A0000860BDF80600FFF7E1FFFFE702B080BD41
:1041B0008EB00D900C9100200A90099008900B9001
:1041C000FFE70B980F2800F2CC81FFE70B99012045
:1041D00088400A900C9800680A990840099009984C
:1041E0000A99884240F0B881FFE70C98406800F0D7
:1041F0000300012807D0FFE70C98406800F0030097
:1042000002282FD1FFE70D98806808900B98410095
:10421000032000FA01F10898884308900C98C068C0
:104220000B99490000FA01F1089808430890089892
:104230000D9988600D98406808900B99012000FA4C
:1042400001F10898884308900C984068C0F300106A
:104250000B9900FA01F108980843089008980D9905
:104260004860FFE70C98406800F00300032818D06E
:10427000FFE70D98C06808900B984100032000FAF2
:1042800001F10898884308900C9880680B994900C0
:1042900000FA01F108980843089008980D99C86041
:1042A000FFE70C98406800F00300022826D1FFE7E2
:1042B0000D980B996FF0030202EA51010844006A5D
:1042C00008900B9800F0070081000F2000FA01F120
:1042D0000898884308900C9800690B9901F0070131
:1042E000890000FA01F108980843089008980D9990
:1042F0000B9B02EA530211440862FFE70D98006825
:1043000008900B984100032000FA01F108988843B7
:1043100008900C98406800F003000B99490000FADF
:1043200001F108980843089008980D9908600C98C6
:1043300080798007002800F00E81FFE7FFE700206A
:10434000079043F64400C4F20200016841F4804142
:104350000160006800F4804007900798FFE70B9821
:1043600020F0030043F60801C4F201014058089010
:104370000B9800F0030081000F2000FA01F108986B
:10438000884308900D980021C4F20201884203D1AD
:10439000FFE7002006905EE00D9840F20041C4F275
:1043A0000201884203D1FFE70120059050E00D98FB
:1043B00040F60001C4F20201884203D1FFE7022067
:1043C000049042E00D9840F60041C4F20201884298
:1043D00003D1FFE70320039034E00D9841F2000180
:1043E000C4F20201884203D1FFE70420029026E0D4
:1043F0000D9841F20041C4F20201884203D1FFE767
:104400000520019018E00D9841F60001C4F2020168
:10441000884203D1FFE7062000900AE00D9941F69B
:104420000042C4F202020820914208BF0720009017
:10443000FFE700980190FFE701980290FFE70298DC
:104440000390FFE703980490FFE704980590FFE7C7
:1044500005980690FFE70698C0B20B9901F003019A
:10446000890000FA01F108980843089008980B9910
:1044700021F0030143F60802C4F20102885043F61A
:104480000840C4F201000068089009990898884320
:1044900008900C988079C006002805D5FFE7099997
:1044A000089808430890FFE7089843F60841C4F2CB
:1044B0000101086043F60C40C4F201000068089056
:1044C00009990898884308900C98807980060028FC
:1044D00005D5FFE70999089808430890FFE7089871
:1044E00043F60C41C4F20101086043F60440C4F2F3
:1044F00001000068089009990898884308900C9872
:1045000080798007002805D5FFE7099908980843B6
:104510000890FFE7089843F60441C4F201010860DF
:1045200043F60040C4F20100006808900999089819
:10453000884308900C988079C00728B1FFE7099953
:10454000089808430890FFE7089843F60041C4F232
:1045500001010860FFE7FFE7FFE70B9801300B90D0
:104560002FE60EB07047000082B00190ADF8021047
:104570008DF801209DF8010028B1FFE7BDF8020089
:104580000199886105E0BDF8020000040199886185
:10459000FFE702B07047000048F63C60C2F200003E
:1045A0000068704740F26C50C2F20000027848F692
:1045B0003C61C2F2000108681044086070470000C6
:1045C00080B543F60041C4F20201086840F400706F
:1045D0000860086840F480600860086840F48070F3
:1045E0000860032000F0CEF80F2000F005F800F07E
:1045F00079F8002080BD000080B58CB00B900020C1
:1046000004900390FFE70020009043F64000C4F2BE
:104610000200016841F001010160006800F0010042
:1046200000900098FFE706A802A901F05FFB099837
:104630000490049820B9FFE701F088FB059004E09E
:1046400001F084FB40000590FFE705984DF683617B
:10465000C4F21B31A0FB01014FF0FF3000EB914091
:10466000039042F67440C2F200004FF080410160B6
:1046700040F2E731C160039941600021016181602E
:10468000816102F027FB8DF807009DF8070028BB29
:10469000FFE742F67440C2F2000002F05FFC8DF8C2
:1046A00007009DF80700C0B9FFE71C2000F046F89E
:1046B0000B980F280CD8FFE70B991C20002200F064
:1046C00047F80B9840F27051C2F20001086003E015
:1046D00001208DF80700FFE7FFE7FFE79DF80700DF
:1046E0000CB080BD80B582B0FFE70020019043F69A
:1046F0004400C4F20200016841F480410160006896
:1047000000F4804001900198FFE7FFE7002000904F
:1047100043F64000C4F20200016841F0805101609C
:10472000006800F0805000900098FFE76FF00100F3
:104730000F21002200F00CF802B080BD80B582B0DD
:104740008DF807009DF907000BF0CEFB02B080BD8D
:1047500080B586B08DF81700049103920020029076
:104760000BF0DAFB02909DF9170001900298049972
:10477000039A05F083F8014601980BF0D5FB06B0CB
:1047800080BD000080B582B0019001980BF0EEFB77
:1047900002B080BD82B001908DF8031002B0704766
:1047A00082B00190ADF80210BDF8020001990968CD
:1047B0004862002002B0704784B003908DF80B105F
:1047C000ADF8082003980068406A00909DF80B003F
:1047D00048B9FFE7BDF80810009840EA0140039986
:1047E0000968886233E003980068816A009800EBEA
:1047F0001140009000208DF80700FFE79DF80700AA
:104800009DF80B100139884213D2FFE70398006826
:104810009DF8071000EB8100D0F80411009800EB20
:1048200011400090FFE79DF8070001308DF8070068
:10483000E4E7BDF80810009840EA014003990968D0
:104840009DF80B2001EB8201C1F80001FFE7002079
:1048500004B0704780B582B001900198D0F8E004B0
:1048600009F08CF802B080BD80B582B001908DF85F
:104870000310019AD2F8E0049DF8031001EBC10384
:1048800002EB8302126A08F0D7FE02B080BD00007E
:1048900080B582B001908DF80310019AD2F8E0043F
:1048A0009DF8031001EBC10302EB8302D2F86022F2
:1048B00008F08AFF02B080BD80B582B001900198F7
:1048C000D0F8E00409F060F802B080BD80B584B093
:1048D00003908DF80B109DF80B00000600280CD5F6
:1048E000FFE703989DF80B1001F00F0101EBC101E8
:1048F00000EB8100143001900CE003989DF80B1040
:1049000001F00F0101EBC10100EB810000F5157012
:104910000190FFE70398006801990AF0B1FD8DF856
:104920000A009DF80A0004B080BD000080B584B084
:1049300002908DF807109DF80700000600280FD59B
:10494000FFE702989DF8071001F00F0101EBC1018C
:1049500000EB8100143000900099012048700FE0B6
:1049600002989DF8071001F00F0101EBC10100EB67
:10497000810000F515700090009900204870FFE755
:104980009DF8070000F00F0000990870FFE70298FB
:1049900090F89404012804D1FFE702208DF80F005D
:1049A00014E00299012081F89404FFE7FFE70298E0
:1049B000006800990AF054F8FFE70299002081F896
:1049C0009404FFE700208DF80F00FFE79DF80F002B
:1049D00004B080BD80B584B002908DF807109DF8BA
:1049E000070000F00F0002990979884204D9FFE717
:1049F00001208DF80F004DE09DF80700000600280B
:104A00000FD5FFE702989DF8071001F00F0101EBA9
:104A1000C10100EB81001430009000990120487022
:104A20000FE002989DF8071001F00F0101EBC101A2
:104A300000EB810000F5157000900099002048708F
:104A4000FFE70099002088709DF8070000F00F0034
:104A500000990870FFE7029890F89404012804D1A7
:104A6000FFE702208DF80F0014E00299012081F881
:104A70009404FFE7FFE70298006800990AF060FAE3
:104A8000FFE70299002081F89404FFE700208DF8E9
:104A90000F00FFE79DF80F0004B080BD82B00190C9
:104AA0008DF8031001989DF8031001F00F0101EB40
:104AB000C10100EB8100D0F8680202B0704700002D
:104AC00080B586B004908DF80F10ADF80C208DF8ED
:104AD0000B3000208DF80A009DF80F00000600281A
:104AE0000FD5FFE704989DF80F1001F00F0101EBBF
:104AF000C10100EB81001430019001990120487040
:104B00000FE004989DF80F1001F00F0101EBC101B7
:104B100000EB810000F515700190019900204870AC
:104B2000FFE79DF80F0000F00F0001990870BDF835
:104B30000C006FF3DF20019988609DF80B0001994C
:104B400008710198407820B1FFE7019908784883FF
:104B5000FFE79DF80B00022804D1FFE70199002030
:104B60004871FFE7FFE7049890F89404012804D106
:104B7000FFE702208DF8170015E00499012081F865
:104B80009404FFE7FFE704980068019909F03AFEF2
:104B9000FFE70499002081F89404FFE79DF80A00DC
:104BA0008DF81700FFE79DF8170006B080BD0000E4
:104BB00080B586B005908DF8131003920293059886
:104BC0009DF8131001F00F0101EBC10100EB810012
:104BD00000F51570019003980199C8600298019939
:104BE0000861019900204861019948709DF81300FF
:104BF00000F00F000199087005988079012804D110
:104C0000FFE703980199C861FFE7059A10680199C9
:104C100092790AF039FA002006B080BD80B584B0E0
:104C200002908DF807109DF8070000F00F00029920
:104C30000979884204D9FFE701208DF80F0058E078
:104C40009DF80700000600280FD5FFE702989DF8A1
:104C5000071001F00F0101EBC10100EB81001430DE
:104C600000900099012048700DE002989DF807100F
:104C700001EBC10100EB810000F515700090009977
:104C800000204870FFE70099012088709DF8070018
:104C900000F00F0000990870FFE7029890F8940464
:104CA000012804D1FFE702208DF80F0021E00299CE
:104CB000012081F89404FFE7FFE70298006800995B
:104CC0000AF08EF99DF80700000740B9FFE7029A45
:104CD0001068917902F29C420AF0E2F8FFE7FFE7E0
:104CE0000299002081F89404FFE700208DF80F005E
:104CF000FFE79DF80F0004B080BD000080B586B0CE
:104D000005908DF813100392029305989DF81310E7
:104D100001F00F0101EBC10100EB810014300190A3
:104D200003980199C86002980199086101990020CF
:104D300048610199012048709DF8130000F00F00B0
:104D40000199087005988079012804D1FFE703983C
:104D50000199C861FFE7059A1068019992790AF0F4
:104D600093F9002006B080BD80B58CB00B900B98F5
:104D700000680A900A9809900B9800680AF0B6FC3F
:104D8000002840F00B84FFE70B9800680AF01AFD3A
:104D900010B9FFE700F002BC0998D0F80808C0F38A
:104DA0000D200B99C1F8D4040B9800680AF00AFD95
:104DB0008007002807D5FFE70B980168486900F0D5
:104DC00002004861FFE70B9800680AF0FBFCC00690
:104DD000002862D5FFE70B980168886920F0100071
:104DE00088610A98006A02900B98029901F00F01FD
:104DF00001EBC10100EB810000F5157008900298ED
:104E000000F4F0110220B0EB514F23D1FFE7BDF8C1
:104E1000080047F6F07108421BD0FFE70A9808998E
:104E2000C968029AC2F30A120AF0DAFC029847F63D
:104E3000F07100EA0103089AD06800EB1310D0600B
:104E4000029800EA01020899486900EB12104861D3
:104E5000FFE71BE0029800F4F0110620B0EB514F81
:104E600012D1FFE70A980B9901F29C4108220AF03F
:104E7000B7FC029847F6F07100EA01020899486908
:104E800000EB1210486100E0FFE7FFE70B980168B4
:104E9000886940F010008861FFE70B9800680AF00D
:104EA00091FC0003002840F1A680FFE70020049059
:104EB0000B9800680AF034FC0690FFE7069800287B
:104EC00000F09880FFE79DF81800C007002800F068
:104ED0008A80FFE70B9800689DF810100AF05AFCD2
:104EE00005909DF81400C00760B1FFE70998049988
:104EF00000EB41110120C1F8080B0B98049904F054
:104F000041FDFFE79DF81400000700280CD5FFE7DE
:104F10000998049900EB41110820C1F8080B0B987F
:104F2000049904F0E9FCFFE79DF81400C00600288E
:104F300008D5FFE70998049900EB41111020C1F84A
:104F4000080BFFE79DF81400800700282DD5FFE728
:104F50000A9840690006002808D5FFE70999D1F8AA
:104F6000040840F48060C1F80408FFE70B98049936
:104F700001EBC10100EB810000F515700890089865
:104F8000C078012809D1FFE708990020C8700B9864
:104F90009DF8101000F012FBFFE70998049900EB50
:104FA00041110220C1F8080BFFE79DF814008006AC
:104FB000002808D5FFE70998049900EB411120204B
:104FC000C1F8080BFFE79DF815008006002809D5F9
:104FD000FFE70998049900EB41114FF40050C1F824
:104FE000080BFFE7FFE7049801300490069840089B
:104FF000069063E7FFE70B9800680AF0E3FB4003C5
:10500000002840F1C680FFE70B9800680AF076FBA5
:10501000069000200490FFE70698002800F0B88072
:10502000FFE79DF81800C007002800F0AA80FFE7FE
:105030000B9800689DF810100AF084FB05909DF80D
:105040001400C00700283ED0FFE7049800F00F01CD
:10505000012000FA01F10391039B099AD2F8341858
:105060009943C2F834180999049A01EB4211C1F826
:1050700008090B98807901281FD1FFE70B98049944
:1050800001EBC10100EB8101CA69086A10440862A2
:10509000049888B9FFE70B98049901EBC10100EB74
:1050A0008100406A40B9FFE70B99086801F29C4211
:1050B000012109F0F5FEFFE7FFE70B989DF81010BE
:1050C000FFF7D2FBFFE79DF814000007002808D582
:1050D000FFE70998049900EB41110820C1F808097D
:1050E000FFE79DF81400C006002808D5FFE70998DF
:1050F000049900EB41111020C1F80809FFE79DF861
:1051000014004006002808D5FFE70998049900EB31
:1051100041114020C1F80809FFE79DF814008007FD
:10512000002822D5FFE70A9804990AF07BFA0B9829
:10513000049901EBC10100EB81001430089008983C
:10514000C078012809D1FFE708990020C8700B98A2
:105150009DF8101000F024FAFFE70998049900EB7D
:1051600041110220C1F80809FFE79DF8140000066C
:10517000002805D5FFE70B98049904F0E7FCFFE74A
:10518000FFE704980130049006984008069043E732
:10519000FFE70B9800680AF015FBC00F00B3FFE7AC
:1051A0000999D1F8040820F00100C1F804080B980F
:1051B00090F8CC04012808D1FFE70B98002180F873
:1051C000CC140B98FFF7E6FA03E00B9800F0A8FB6D
:1051D000FFE70B980168486900F000404861FFE76D
:1051E0000B9800680AF0EEFA0005002811D5FFE7D9
:1051F0000998D0F80808C00720B1FFE70B9800F025
:105200001BFCFFE70B980168486900F400604861E7
:10521000FFE70B9800680AF0D5FAC004002840F1B7
:105220008680FFE70999D1F8040820F00100C1F851
:1052300004080B98006810210AF0F4F90020079088
:10524000FFE707980B990979884231D2FFE709985F
:10525000079900EB41114FF67F30C1F80809099911
:10526000079A01EB4212D2F8001921F40011C2F89A
:1052700000190999079A01EB4211C1F8080B099826
:10528000079900EB4111D1F8000B20F40010C1F890
:10529000000B0998079900EB4111D1F8000B40F081
:1052A0000060C1F8000BFFE7079801300790C8E7DE
:1052B0000999D1F81C0840F00110C1F81C080B989E
:1052C000C07B78B1FFE70999D1F8840840F00B0062
:1052D000C1F884080999D1F8440840F00B00C1F8DE
:1052E00044080FE00999D1F8140842F22B02104348
:1052F000C1F814080999D1F8100840F00B00C1F862
:105300001008FFE70999D1F8000820F4FE60C1F801
:1053100000080B9A1068917902F29C4209F0C0FDD6
:105320000B980168486900F480504861FFE70B98CA
:1053300000680AF047FA800400281FD5FFE70B98A1
:10534000006809F0CFFA0B9800680AF0A9F90B99E8
:10535000C8710B980068019000F0F2FC01460198BA
:105360000B9AD2790AF034FB0B9800F0AFFA0B9845
:105370000168486900F400504861FFE70B98006835
:105380000AF020FA000700280AD5FFE70B9800F082
:10539000D1FA0B980168486900F008004861FFE7FE
:1053A0000B9800680AF00EFA0006002825D5FFE7E2
:1053B0000A99886920F08000886101200490FFE745
:1053C00004980B990979884216D2FFE70B98049943
:1053D00001EBC10100EB810090F85702012806D1D2
:1053E000FFE70B989DF81010FFF770FAFFE7FFE753
:1053F000049801300490E3E7FFE70B9800680AF097
:10540000E1F9C00200283CD5FFE701200490FFE746
:1054100004980B99097988422CD2FFE709980499DE
:1054200000EB4110D0F8000902900B98049901EBB1
:10543000C10100EB8100007E012816D1FFE79DF835
:105440000B000006002810D5FFE70B98049901EB2C
:10545000C10100EB81010120C8750B989DF8101067
:1054600041F08001FFF732FAFFE7FFE704980130CF
:105470000490CDE70B980168486900F480104861FA
:10548000FFE70B9800680AF09DF98002002855D5C7
:10549000FFE701200490FFE704980B9909798842FF
:1054A00045D2FFE70998049900EB4110D0F8000BB2
:1054B00002900B98049901EBC10100EB810090F878
:1054C000580201282ED1FFE79DF80B0000060028A6
:1054D00028D5FFE7029800F480300B99D1F8D41456
:1054E00001F0010188421DD1FFE70B98049901EBFF
:1054F000C10100EB8101012081F857020A998869F6
:1055000040F0800088610A9840690006002808D4AD
:10551000FFE70999D1F8040840F40070C1F80408C5
:1055200005E0FFE7FFE7049801300490B4E70B982B
:105530000168486900F400104861FFE70B980068B3
:105540000AF040F9400000280AD5FFE70B98FFF762
:1055500081F90B980168486900F080404861FFE7D5
:105560000B9800680AF02EF94007002815D5FFE7D0
:105570000B980068406802909DF8080040070028DA
:1055800004D5FFE70B98FFF797F9FFE7029A0B980E
:105590000168486810434860FFE7FFE70CB080BD32
:1055A00080B582B001908DF803100198D0F8E00426
:1055B0009DF8031008F084FA02B080BD80B582B077
:1055C00001908DF803100198D0F8E0049DF80310C5
:1055D00008F0AEFA02B080BD80B58EB00C900C9889
:1055E00020B9FFE701208DF8370012E10C98006820
:1055F0000B900C9890F8950440B9FFE70C990020A7
:1056000081F894040C9800F009F9FFE70C99032045
:1056100081F895040B98B0F1A04F04D1FFE70C99E5
:1056200000208871FFE70C98006809F02FFC0C9BA4
:105630001868197C8DF8241059689A68DB680893FB
:10564000079206910699079A089BDDF824C0EE465A
:10565000CEF800C009F05CF940B1FFE70C990220D8
:1056600081F8950401208DF83700D2E00C9800688D
:1056700000210AF00FF940B1FFE70C99022081F8F0
:10568000950401208DF83700C3E000208DF82B0031
:10569000FFE79DF82B000C990979884241DAFFE772
:1056A0000C989DF82B1001EBC10100EB810101204A
:1056B00048759DF82B000C9900EBC00201EB8201AC
:1056C00008759DF82B000C9900EBC00201EB8201DC
:1056D000C8850C989DF82B1001EBC10100EB8101EE
:1056E000002008760C999DF82B2002EBC20201EBFA
:1056F0008201C8610C999DF82B2002EBC20201EBDC
:10570000820108620C999DF82B2002EBC20201EB8A
:1057100082014862FFE79DF82B0001308DF82B00D5
:10572000B7E700208DF82B00FFE79DF82B000C99C0
:10573000097988423EDAFFE70C989DF82B1001EBBF
:10574000C10100EB8101002081F855029DF82B106A
:105750000C9A01EBC10302EB830282F854120C99FC
:105760009DF82B2002EBC20201EB820181F8580266
:105770000C999DF82B2002EBC20201EB8201C1F8CB
:105780005C020C999DF82B2002EBC20201EB820116
:10579000C1F860020C999DF82B2002EBC20201EBCC
:1057A0008201C1F86402FFE79DF82B0001308DF8FB
:1057B0002B00BAE70C9B1868197C8DF814105968F7
:1057C0009A68DB680493039202910299039A049BFE
:1057D000DDF814C0EE46CEF800C009F009FA40B179
:1057E000FFE70C99022081F8950401208DF837001D
:1057F0000FE00C990020019048740C99012081F869
:1058000095040C98006809F0DDF901988DF83700CF
:10581000FFE79DF837000EB080BD000080B58AB06C
:105820000990002008900790069005900490099830
:105830000068B0F1A04F47D1FFE7FFE700200390D9
:1058400043F63000C4F20200016841F0010101603A
:10585000006800F0010003900398FFE74FF4C05088
:1058600004900220059000200690032007900A2053
:1058700008900020C4F2020004A9FEF799FCFFE79B
:1058800043F63401C4F20201086840F08000086069
:10589000FFE70020029043F64400C4F202000168D2
:1058A00041F480410160006800F480400290029859
:1058B000FFE7FFE74320019005210022FEF748FFA4
:1058C0000198FEF73BFFFFE70AB080BD80B582B0CC
:1058D000019001208DF803000198C07920B9FFE7FD
:1058E00000208DF803000CE00198C079022804D153
:1058F000FFE701208DF8030002E0FCF795FEFFE7CB
:10590000FFE70198D0F8E0049DF8031008F010FAC2
:105910000198D0F8E00408F08BF902B080BD0000D7
:1059200080B582B001900198D0F8E00408F0CEF97B
:1059300002B080BD80B582B001900198D0F8E0043B
:1059400008F0D6F902B080BD80B584B002908DF821
:105950000710FFE7029890F89404012804D1FFE7AC
:1059600002208DF80F0019E00299012081F89404BB
:10597000FFE7FFE79DF80700029948740298006866
:105980009DF8071009F0F6FFFFE70299002081F863
:105990009404FFE700208DF80F00FFE79DF80F004B
:1059A00004B080BD80B582B001900199D1F8E004C7
:1059B00001F29C4108F0E6F902B080BD80B584B0E8
:1059C0000290029800680190FFE7029890F8940412
:1059D000012804D1FFE702208DF80F0028E002998A
:1059E000012081F89404FFE7FFE70198C0684006B2
:1059F00000280BD5FFE70298407B012806D1FFE77E
:105A00000199886B40F480308863FFE70298006852
:105A100009F0C4FD0298006809F0BEF8FFE702999A
:105A2000002081F89404FFE700208DF80F00FFE7C5
:105A30009DF80F0004B080BD80B582B00190019840
:105A4000D0F8E00408F020FA01980168D1F8000EBF
:105A500040F00100C1F8000E0198C07A48B1FFE79C
:105A60004EF61051CEF20001086840F006000860C2
:105A7000FFE702B080BD00007047000080B584B031
:105A800002900191029820B9FFE701208DF80F00E4
:105A900021E1019843F60041C4F20201096801F0D6
:105AA0000701884212D9FFE7019943F60040C4F28A
:105AB00002000170006800F007000199884204D0DC
:105AC000FFE701208DF80F0005E1FFE7029800785D
:105AD000800700282AD5FFE70298007840070028B1
