:020000040800F2
:10000000D81A012061040008995501082934010813
:100010003154010821280008E9B40108000000005B
:10002000000000000000000000000000D186010870
:10003000395F000800000000715A0108F9870108C3
:100040007B0400087B0400087B0400087B04000894
:100050007B0400087B0400087B0400087B04000884
:100060007B0400087B0400087B040008F9500008AA
:100070000951000819510008295100083951000898
:1000800049510008595100087B040008A15F00088D
:10009000196000087B040008296000087B04000840
:1000A0007B0400087B0400087B0400087B04000834
:1000B000518A01087B0400087B0400087B040008C7
:1000C0007B0400087B0400087B0400087B04000814
:1000D000D984010851A4010861A4010871A4010890
:1000E0007B0400087B040008000000007B0400087B
:1000F0007B0400087B0400087B04000869510008A9
:100100007B0400087B0400087B0400087B040008D3
:100110007B040008219301087B0400087B0400088D
:10012000795100088951000899510008A951000827
:10013000B95100087B0400087B0400087B04000818
:1001400000000000000000000000000000000000AF
:10015000C9510008D95100087B0400087B0400083D
:100160007B0400087B0400087B0400087B04000873
:100170007B0400087B0400087B04000800000000EA
:100180007B0400087B040008319301087B0400080D
:100190007B0400087B0400087B0400087B04000843
:1001A0007B0400087B0400087B04000800000000BA
:1001B0007B0400087B0400087B0400087B04000823
:1001C0007B0400087B040008000000000000000021
:1001D00000000000000000007B0400080000000098
:1001E000000000000000000000000000000000000F
:1001F00000000000000000007B0400087B040008F1
:100200007B0400087B040008000000007B04000859
:100210007B0400087B0400087B0400087B040008C2
:100220007B040008000000007B04000800000000C0
:100230007B0400087B040008000000007B04000829
:100240007B040008E91F00087B0400087B04000809
:100250007B0400087B0400087B0400087B04000882
:100260007B0400087B0400087B0400087B04000872
:100270007B0400087B0400087B04000800000000E9
:100280007B0400087B0400087B0400087B04000852
:10029000000000007B0400087B0400080000000050
:1002A000000000007B0400087B0400087B040008B9
:1002B00041A401087B0400087B0400088160000859
:1002C000916000087B0400087B04000800F002F83D
:1002D00000F0B6F80AA090E8000C82448344AAF12A
:1002E0000107DA4501D100F0ABF8AFF2090EBAE828
:1002F0000F0013F0010F18BFFB1A43F0010318475A
:10030000B4140200E41402000A444FF0000C10F888
:10031000013B13F0070408BF10F8014B1D1108BF83
:1003200010F8015B641E05D010F8016B641E01F823
:10033000016BF9D113F0080F1EBF10F8014BAD1C73
:100340000C1B09D16D1E58BF01F801CBFAD505E091
:1003500014F8016B01F8016B6D1EF9D59142D6D3EB
:10036000704700000023002400250026103A28BF13
:1003700078C1FBD8520728BF30C148BF0B60704717
:100380006E2900F06D83702900F0B184662920F099
:100390005E82652920F05B82672920F058826129FE
:1003A00020F0578203681B0A28BF41F080016929A9
:1003B00000F01A83642900F01783752900F0148374
:1003C0006F2900F03F84782900F07D84E92900F04E
:1003D000D983E42900F0D683F52900F0D383EF29EF
:1003E00000F03C84F82900F07C840368DB0928BF16
:1003F00041F08001632901F09F81732901F0A481FC
:10040000E32901F0AF81F32901F0B48100207047A6
:100410001FB520F00FFA9DE8030000F01BFA01F071
:1004200007FA04000020002120F0EEF9401C606073
:100430000020002120F0D2F9E0601FBD10B510BDF2
:1004400001F0C8F91146FFF7E3FF1DF035FA01F09E
:10045000A5FA03B4FFF7F2FF03BC01F0D5FA0000E0
:100460000948804709480047FEE7FEE7FEE7FEE748
:10047000FEE7FEE7FEE7FEE7FEE7FEE70448054984
:10048000054A064B7047000011890108CD0200089B
:10049000D8BA0020D81A0120D8DA0020D8DA0020F3
:1004A00070B5064600F0BAF9056806F10B0020F0B9
:1004B0000704B4429CBF002070BD2B466A68BAB1E5
:1004C0001068A04210D304F1080188423CBF506874
:1004D000586007D35168101941601168091B016009
:1004E00058601460101D70BD13465268002AE7D191
:1004F0002146284600F09AF90028DED170BD53EA63
:10050000020C00F069802DE9F04B4FF00006002B43
:100510001FBFB3FA83F503FA05F424FA05F65E402B
:1005200012BF1643B2FA82F502FA05F4C5F12005AE
:100530001EBF22FA05FC44EA0C04203556EA044C9E
:100540004FEA144418BF641C4FF000084FF0000934
:10055000904271EB030C39D3002919BFB1FA81F72E
:1005600001FA07F6B0FA80F700FA07F6C7F120079C
:100570001EBF20FA07FC46EA0C062037B6FBF4FC47
:10058000A7EB0507103F07F01F0BCBF120062CFA55
:1005900006F60CFA0BFB44BFB3460026202FA4BF7F
:1005A0005E464FF0000B5BEA060C08BF4FF0010BF4
:1005B00019EB0B0948EB0608ABFB027C06FB02CCEF
:1005C0000BFB03CCC01B71EB0C01C1E70B460246D1
:1005D00041464846BDE8F08B13B5084318BF4FF0BD
:1005E000FF300146AFF30080BDE81C4070470000BB
:1005F0007CB51D4616460C00009007D04142A14232
:1006000002D32044401E01E04FF0FF30064B7B44F4
:100610002A4669460190304600F03BFA002C02D091
:10062000009A002111707CBDA704000040EA01037C
:1006300010B59B070FD1042A0DD310C808C9121F8B
:100640009C42F8D020BA19BA884201D9012010BDC5
:100650004FF0FF3010BD1AB1D30703D0521C07E092
:10066000002010BD10F8013B11F8014B1B1B07D1F6
:1006700010F8013B11F8014B1B1B01D1921EF1D167
:10068000184610BD032A40F2308010F0030C00F031
:10069000158011F8013BBCF1020F624498BF11F8BC
:1006A00001CB00F8013B38BF11F8013BA2F1040275
:1006B00098BF00F801CB38BF00F8013B11F00303ED
:1006C00000F02580083AC0F0088051F8043B083A51
:1006D00051F804CBA0E80810F5E7121D5CBF51F8F3
:1006E000043B40F8043BAFF30080D20724BF11F86D
:1006F000013B11F801CB48BF11F8012B24BF00F8D2
:10070000013B00F801CB48BF00F8012B704710B542
:10071000203AC0F00B80B1E81850A0E81850B1E8BA
:100720001850A0E81850203ABFF4F5AF5FEA027CF9
:1007300024BFB1E81850A0E8185044BF18C918C029
:10074000BDE810405FEA827C24BF51F8043B40F8CA
:10075000043B08BF7047D20728BF31F8023B48BFAF
:1007600011F8012B28BF20F8023B48BF00F8012BED
:10077000704702F0FF0343EA032242EA024200F01C
:1007800024B84FF000020429C0F0128010F0030CCE
:1007900000F01B80CCF1040CBCF1020F18BF00F874
:1007A000012BA8BF20F8022BA1EB0C0100F00DB823
:1007B0005FEAC17C24BF00F8012B00F8012B48BF81
:1007C00000F8012B70474FF0000200B51346944625
:1007D0009646203922BFA0E80C50A0E80C50B1F199
:1007E0002001BFF4F7AF090728BFA0E80C5048BFAD
:1007F0000CC05DF804EB890028BF40F8042B08BF4B
:10080000704748BF20F8022B11F0804F18BF00F846
:10081000012B7047704770477047000000487047D1
:1008200088090020704770477047704738B5044604
:100830000A4600206946AFF30080002808BF38BD93
:1008400002460099204600F029FB012038BD012016
:1008500000F0B8BFF8B5AFF30080054600200C46A5
:10086000102000BF0646A819A0420DD9324669469D
:100870000020AFF30080070008BF00F0A3FF00983E
:10088000A04218BF0546C419FFF7C8FF0560074618
:10089000F01D20F007004619284600F00AF8B4427F
:1008A00008BFF8BDA21B31463868BDE8F84000F02B
:1008B000F5BA00210160C0E90110704710207047AF
:1008C00070B50446051FFFF7A9FF0068002C14BF90
:1008D000446870BD002C18BFAC423CBF2046646821
:1008E000F8D301680A18AA4218BF456003D12A68E4
:1008F00005461144016028684119A1421CBF6C6083
:1009000070BD6168696021680844286070BD10B5D9
:1009100000F0C0FA006810BD10B5044600F0BAFA45
:10092000046010BD70B5044685690068C10601D534
:10093000302600E02026C00707D070BDD4E9012191
:1009400030469047206A401C20626D1EF6D570BD6F
:1009500070B5044685690078C00707D170BDD4E939
:10096000012120209047206A401C20626D1EF6D590
:1009700070BD09684A0501D540B27047C905FCD56C
:1009800000B2704709684A0501D5C0B27047C90571
:10099000FCD580B2704770B50C460546012A05D0DB
:1009A0002878800600D5EA69002302E0012305E0EB
:1009B0005B1C934202D2E05C0028F9D1A869E618DA
:1009C000C01AA861286A184428622846FFF7AAFFBF
:1009D00004E0D5E9012114F8010B9047B442F8D3A3
:1009E0002846FFF7B5FF70BD2DE9F041064600240B
:1009F00010687529314616A510D0FFF7BAFF0028F8
:100A000002DA404213A507E031688A0701D512A532
:100A100002E0490704D511A5012401E0FFF7B2FF68
:100A200000210A2206F1240709E0B0FBF2FCB0FB2A
:100A3000F2F302FB1C00303078541846491C0028A1
:100A4000F3D123462A463046BDE8F04100F085BA8E
:100A5000000000002D0000002B000000200000001E
:100A600011680268006A530501D508700AE0D305D1
:100A700001D5088006E0130603D5C217C1E90002BC
:100A800000E008600120704701694A1C0261087893
:100A9000704700B58FB0CDE90131002105910549BE
:100AA0007944CDE903101146684600F02BF90FB0E8
:100AB00000BD0000E5FFFFFFD1E900239A4202D20A
:100AC000531C0B60107070472DE9FF5F15468A4676
:100AD0000446DFF8AC80F8440027D8E900103E4611
:100AE000CDE9001010E03AF816106A4602A800F0AE
:100AF00045FE411C07D02178890603D5E2693918E3
:100B000091420DD80744761C2078800602D5E06912
:100B1000B84205DDAE42E6DB3AF816000028E2D125
:100B2000A069C01BA0612046FFF7FCFED8E90010B9
:100B3000CDE90010002017E03AF818106A4602A824
:100B400000F01CFEB0F1FF3F81460BD000250DF1F7
:100B5000080B05E0D4E901211BF8050090476D1C46
:100B60004D45F7D308F10100B0428046E4DB206A2E
:100B7000384420622046FFF7EBFEBDE8FF9F0000EF
:100B8000BEFE01002DE9F0418046D21D22F0070291
:100B90000025D2E90002F52915A614D0011E72F134
:100BA000000106DA0023D0EB030063EB020211A67A
:100BB00008E0D8F800108B0701D50FA602E049071E
:100BC00001D50EA601251146002408F1240704E0F2
:100BD00000F07EF930323A55641C50EA0102F7D138
:100BE0002B46324621464046BDE8F04100F0B5B9FB
:100BF000000000002D0000002B000000200000007D
:100C000030B4002100F1240408E002F00705D20806
:100C1000303542EA4372DB086554491C52EA030549
:100C2000F3D10468002310A2250708D504F020049E
:100C30000C4304D0C46901230CA2641EC46130BCFF
:100C400000F08BB910B5044621461068FFF79AFEF4
:100C500002462046BDE810400023D1E7D21D22F015
:100C60000701D1E90023CBE70000000030000000BD
:100C7000F0B40D460188090502D5214C7C4402E000
:100C80001F4C7C440E34002100F1240608E002F0E1
:100C90000F071209E75D42EA03721B097754491CEA
:100CA00052EA0307F3D102780023120704D5702D0E
:100CB00006D009B1022311342246F0BC00F04DB930
:100CC00001231034F8E770B504460D46214610683C
:100CD000FFF758FE024629462046BDE87040002333
:100CE000C6E7D21D22F00703D3E90023C0E703685B
:100CF000126843F0200303600823C3610023B7E7B1
:100D000020FD01002DE9F05F894604464FF0000AFE
:100D1000DFF874B1FB44C0F820A02046E1688847A2
:100D2000002874D0252806D0D4E901219047206AF4
:100D3000401C2062F1E700265F462046E1688847B4
:100D40002028054607DB312D05D2781910F8200C34
:100D500008B10643F1E7B00701D526F00406C4F850
:100D60001CA00027C4F818A02A2D09D028461FF07F
:100D70000FFD38B304EB8708303DC8F8185019E070
:100D800059F8041B204604EB87029161E16888470B
:100D9000012F054618D1E069002820DA26F0200648
:100DA0001DE0D8F8180000EB800005EB400030385B
:100DB000C8F818002046E168884705461FF0E8FC9F
:100DC0000028EED1012F0AD02E2D08D12046E1684F
:100DD00088477F1C0546022F46F02006C4DBA06929
:100DE000002803DA404246F00106A061F00701D076
:100DF00026F010066C2D0BD0682D09D04C2D39D063
:100E00006A2D35D0742D35D07A2D33D016E038E0E8
:100E1000E1682F4620468847B842054609D16C2F25
:100E200026D04FF48060E168064320468847054697
:100E300004E06C2F1AD04FF4807006430DB3A5F177
:100E40004100192802D8203546F400664A46294652
:100E5000204626604E46FFF793FA80B101280BD05A
:100E6000F61D26F0070000F1080956E74020E4E7E8
:100E70008020D8E70020D6E706F104094DE7284690
:100E800052E7206ABDE8F09FB0FC010000487047BF
:100E90008009002000487047800900200346406810
:100EA0008C46002818BF88423CBF03464068F8D3F0
:100EB00018681844884207D00CF1030020F007009E
:100EC000001D411A521A0146081D0A60FFF7F8BCBE
:100ED00030B5B0F10A0271F100034FEA900E4EEA0C
:100EE000817EB0EB0E0061EB91014FEA101E4EEADD
:100EF000017E10EB0E0041EB11114FEA102E4EEA6D
:100F0000016E10EB0E0041EB11214FEA104E4EEA3C
:100F1000014E10EB0E0041EB1141401841F1000170
:100F20004FEAD00040EA41704FEAD1014FEA810414
:100F300044EA907410EB800544EB01046D1944EB16
:100F40000404521BA3414FF0000348BF0A3200D5EE
:100F500030BD401C41F1000130BD2DE9F0470D4688
:100F600099469246044600F124080168880604D593
:100F7000E06921F01001216000E00120A84201DDBC
:100F8000471B00E00027A1697A1902EB0900081A43
:100F9000A0612078C00602D42046FFF7C3FC0026DB
:100FA00008E0D4E901211AF806009047206A401CA5
:100FB000761C20624E45F4DB2078C0060AD5204618
:100FC000FFF7B0FC06E0D4E9012130209047206A09
:100FD000401C2062381EA7F10107F4DC07E0D4E9C9
:100FE000012118F805009047206A401C2062281E45
:100FF000A5F10105F3DC2046FFF7AAFC20780006E6
:1010000002D50220BDE8F0870120FBE72DE9FF4F64
:101010000C461E464FF0FF378BB0D2E90001DDF8D9
:1010200060800A908A46C1F30A5505B93D46002101
:1010300008464FF00000BAF1000F00F4400005DA56
:1010400000EB80004FF4400101EA50004FEA905954
:10105000B9F1010F00DDB9460A9850EA4A000ED0F6
:1010600044F61050A5F2FF3545432F14B8F1000F98
:101070001ED07542291E1EDDC9F100021CE0B8F128
:10108000010F4FF0000001D0302103E0F24305E0F2
:101090002154401CB042FBDB304600220021215489
:1010A0000B99C1F80880C1E900200FB0BDE8F08FAE
:1010B000BD1B6D1CDEE74A4600DA694206A800F057
:1010C000FBFB06AB93E8070003AB83E80700504641
:1010D0000A991EF079F98DE80700A0F500501F3835
:1010E00000900398002D0ADD42F21F014A46084491
:1010F000002303A9039068461EF0E2FB09E0A0F577
:1011000000504A461F38002303A9039068461EF08A
:10111000ECFB8DE807000004000C03D04FF0FF301B
:10112000410800E01046B8F1000F03D00022009201
:1011300015461EE0751E05D4FFF7CAFE3032625513
:101140006D1EF9D5B3460122084302D000227F1C50
:1011500004E02078302801D100227F1E002A099760
:1011600084D01DE0112D07DAFFF7B2FE3032625550
:101170006D1C50EA0102F5D1084302D00098C8B1B5
:101180000EE00021681E05E0235C625C635422547B
:10119000401E491C8142F7DBAB46A81B401E09904C
:1011A000002004F80B000B98099AC0F80880C0E9E9
:1011B000002B7AE711264FF0000857E72DE9F04F92
:1011C00088460446D21D22F0070191B0D1E9000102
:1011D000CDE90A011EF0C0FC02460B98C00F01D0F9
:1011E0002D2007E02068810701D52B2002E0202177
:1011F00001EAC000032A099001D0072A05DB034653
:101200004146204600F018FB0BE12078800601D50E
:10121000E06900E00620B8F1650F814606D0B8F11C
:10122000660F18D0B8F1670F70D131E00020B9F126
:10123000110F009001DB112301E009F101030AAA5B
:1012400001A90CA8FFF7E2FEDDE90C70002609F108
:101250000105834647E001204B4600904FF00047D0
:101260000AAA01A90CA8FFF7D1FEDDE90DB00C997F
:101270005D46002610B909F101000D18B9EB050013
:1012800003D4C0F1FF3609F10105A5EB09002BE0FD
:10129000B9F1010F01DA4FF001090020B9F1110F86
:1012A0000090484601DD112300E003460AAA01A987
:1012B0000CA8FFF7ABFEDDE90C704D460026834617
:1012C000207800070AD4AB4500DA5D4601A8012D5D
:1012D00004DD411911F8011C302907D04F4502DA0D
:1012E00017F1040F04DA012082460FE06D1EEEE7CD
:1012F000002F02DCED1B3E4403E0781CA84200DD19
:101300007D1CB81B00F1010A4FF000472078000750
:1013100003D4AA4501DB4FF0FF3A0021B7F1004F9B
:101320000DF143088DF8431024D002202B23002F09
:1013300001DA7F422D230A21021EA0F1010000DC08
:101340005FB197FBF1FC97FBF1F201FB1C7C1746A8
:101350000CF1300C08F801CDEEE7A8F101000370A4
:101360002188090501D5452100E06521A0F101088A
:1013700000F8011C09980FA9A1EB0807FF1D00B197
:101380000120411901EBEA70A1693844081A401E96
:10139000A0612078C00602D42046FFF7C3FA09985E
:1013A00028B1D4E901219047206A401C20622078AE
:1013B000C00622D52046FFF7B5FA1EE0002E04DB5A
:1013C000B34502DD01A8805D00E03020D4E90121B1
:1013D0009047206A401C2062761CAAF101005FEA57
:1013E000000A0AD100F024FAC0680168405CD4E920
:1013F00001219047206A401C2062281EA5F10105AA
:10140000DCDC07E0D4E9012118F8010B9047206AE1
:10141000401C2062381EA7F10107F3DC2046FFF7CD
:1014200097FA032011B041E62DE9F04F04460D462E
:10143000D21D22F0070089B0D0E90097484639460E
:101440001EF08AFB0246F80F01D02D2307E020682A
:10145000810701D52B2302E0202101EAC0038DF88A
:1014600020300BB1012000E00020032A824601D089
:10147000072A04DB2946204600F0DEF93FE1207808
:10148000800601D40D2500E0E569C7F30A560D2D4D
:1014900049DA00214FEA175B08464FF00000002FA1
:1014A00000F4400007DA00EB80004FF4400100EB4D
:1014B000D07001EA60008115012901DD4FF0FF3194
:1014C00000224FEA850CBCF1180F06D31346ACF18D
:1014D00018004FF08052C24003E04FF4801323FA0B
:1014E0000CF30CF10C0CBCF1200F04D3ACF1200C6C
:1014F00009FA0CF001E007FA0CF000294FF000485F
:1015000001DD18B90FE00ED140450CD319EB0209EB
:101510005F4121B9404502D19F4329EA0209BBEB53
:10152000175F00D0761C2088000502D57B487844E0
:1015300002E07A487844193808AA302302F80A30C1
:10154000037C0AF10101002E0AF1020A53546A4693
:1015500002DC4FF0300101E04FF031014FF00108A3
:101560008DF8001002D0A6F2FF3603E059EA4701D9
:1015700000D06B4E002D02DC2178090704D54FF016
:1015800002082E218DF80110C44600210BE0C7F39C
:1015900003433F01C35C491C6D1E02F80830052956
:1015A00008F1010801DA002DF1DC00210CE000EB6C
:1015B0001973491C1B786D1E082902F808304FEA80
:1015C000091908F1010801DA002DF0DC21688B0609
:1015D00002D516E0A8F10108E04505DD02EB08039D
:1015E00013F8013C302BF5D0B8F1000F09DD02EB08
:1015F000080313F8013C2E2B03D1090701D4A8F1ED
:101600000108002D05DD3E2102F808106D1E08F1CD
:101610000108407C002E02F8080008F1010804DAF5
:101620002D20764202F8080002E02B2002F8080084
:101630000A214FF47A70864208F101080BDB96FB11
:10164000F0F3303302F8083096FBF0F308F10108AC
:1016500000FB136601E0642E0CDB642096FBF0F3C4
:10166000303302F8083096FBF0F308F1010800FB74
:10167000136601E00A2E06DB96FBF1F0303002F82B
:10168000080008F1010896FBF1F001FB1060303012
:1016900002F80800A16908F1010808EB050202EB55
:1016A0000A00081AA0612078C00602D42046FFF77D
:1016B00039F9216A08AE01EB0A00206204E0D4E99E
:1016C000012116F8010B9047BAF1010AF7D22078F0
:1016D000C00602D52046FFF725F96E4609E016F848
:1016E000010B3E280FD0D4E901219047206A401C0D
:1016F0002062B8F10108F2D22046FFF729F909B0BB
:101700000320BDE8F08F206A2844206203E0D4E97A
:101710000121302090476D1EEBD3F8E7BAF40100A9
:1017200002FCFFFF10B5436913B1AFF3008001E085
:10173000FFF731F9012010BD127800F124010A7081
:1017400000224A700122EDE711684FF0FF32E9E70D
:1017500010B5436913B1AFF3008001E0FFF7B4F9AE
:10176000012010BD128800F1240182840022C2846D
:101770000122EDE711684FF0FF32E9E72DE9F04172
:1017800016460C46054600F04BF8036893F8010135
:10179000012807D0FF2C12D8185D80B101202C70D1
:1017A000BDE8F081D3F807013246214603F2071362
:1017B000C7182846BC46BDE8F041002360474FF0FB
:1017C000FF30EDE710B500F0F7F8BDE8104000F08D
:1017D000EEB870477546FFF759FBAE4605006946FF
:1017E000534620F00700854618B020B5FEF746FEA8
:1017F000BDE820404FF000064FF000074FF0000812
:101800004FF0000BAC46ACE8C009ACE8C009ACE84E
:10181000C009ACE8C00921F007018D4670470000FF
:1018200010B500F005F8001D10BD00BFDDEF010090
:1018300000487047A00900202DE9F0411F460446EA
:1018400003260168072A01F4006004DB08B116A52D
:1018500005E016A503E008B115A500E015A521F0E7
:1018600010002060A069C01EA0610FB1401EA061E1
:101870002046FFF757F84FB1D4E901213846904789
:10188000206A401C2062C01C206206E0206AFAE741
:10189000D4E9012115F8010B9047761EF8D22046B5
:1018A000FFF756F8BDE8F0814E414E006E616E00C4
:1018B000494E4600696E66002DE9F047814616469E
:1018C0008AB0354878440DC88DE80D003248784418
:1018D000801C03AC0DC884E80D0041F69B30084421
:1018E000372190FBF1F290FBF1F5A5F1800501FBAA
:1018F00012041B3C02D56442012000E00020DFF806
:1019000098A080460027FA44AAF1BE0A0EE0E0073C
:101910000AD03246684607EB470101230AEB8101F2
:101920001DF0E3FF8DE8070064107F1C002CEED152
:10193000194F7F44AE3F19E0E80715D007EB0410BC
:101940000DF1180A90E80E008AE80E00C068F04217
:1019500001D1981908903246012306A903A81DF069
:10196000C4FF03AB83E807006D10641C002DE3D1B6
:101970004FF0010332466946B8F1000F03A802D0C8
:101980001DF09EFF01E01DF0B0FFC9E90001C9F89C
:1019900008200AB0BDE8F087B4F1010010B5044694
:1019A000AFF300802046BDE81040FEF752BD00288E
:1019B00001D000F029B8704710B5012805D00021EA
:1019C00003A000F027F8012010BD09A1F8E70000EE
:1019D00053494752544D454D3A204F7574206F6618
:1019E0002068656170206D656D6F72790000000080
:1019F0003A2048656170206D656D6F727920636F64
:101A0000727275707465640001491820ABBEFEE700
:101A10002600020070B505460C460A2000E06D1C49
:101A200000F050F835B128780028F8D102E0641CA5
:101A300000F048F814B120780028F8D1BDE87040D3
:101A40000A2000F03FB8000030B44FF0013C50F8DD
:101A5000042BCCFA52F451F8043BD51A20D1FCB92E
:101A600050F8042BCCFA52F451F8043BD51A17D194
:101A7000B4B950F8042BCCFA52F451F8043BD51AFF
:101A80000ED16CB950F8042BCCFA52F451F8043B47
:101A9000D51A05D1002CDAD030BC4FF000007047C9
:101AA00029BAB1FA81F111F01801D1F12000844076
:101AB000F2D1CA40CB4012F0FF0213F0FF0330BC5A
:101AC000D01A704708B569468DF800000320ABBEF8
:101AD00008BD00000000000080B584B003900398AA
:101AE000006842F20001C4F20201884209D0FFE717
:101AF0000398006842F20011C4F20201884209D141
:101B0000FFE742F20830C4F20200006810F4403FE0
:101B100009D129E046F20830C5F60200006810F449
:101B2000403F21D0FFE70DF07FFD02900398406811
:101B30000190B0F5803F0AD0FFE70198B0F5003F73
:101B400005D0FFE70198B0F5403F07D00AE00398C1
:101B5000C1880298B0FBF1F0029004E0029880087E
:101B6000029000E0FFE75FE04FF4002000210BF05F
:101B700067FD0290039840680090B0F5802F32D046
:101B8000FFE70098B0F5002F2DD0FFE70098B0F5E3
:101B9000402F28D0FFE70098B0F5801F23D0FFE743
:101BA0000098B0F5A01F1ED0FFE70098B0F5C01F49
:101BB00019D0FFE70098B0F5E01F1FD0FFE70098AD
:101BC000B0F5001F1ED0FFE70098B0F5101F1DD024
:101BD000FFE70098B0F5201F1CD0FFE70098B0F594
:101BE000301F1BD01EE0039841686FF0010000EA2F
:101BF00051410298B0FBF1F0029014E00298000904
:101C0000029010E00298400902900CE002988009CE
:101C1000029008E00298C009029004E00298000ACD
:101C2000029000E0FFE7FFE7029840080290029868
:101C300045F61061C0F25F01884209D8FFE70398BA
:101C40000068806820F440700399096888602EE07D
:101C500002984BF62041C0F2BE0188420AD8FFE745
:101C6000039800688068012161F3092003990968DD
:101C700088601BE0029847F64001C0F27D1188425F
:101C80000AD8FFE7039800688068022161F3092001
:101C900003990968886008E003980068806840F448
:101CA0004070039909688860FFE7FFE7FFE704B029
:101CB00080BD00000000000080B582B00190019856
:101CC000806B00900098006E10F0500F4AD1FFE733
:101CD0000099086E40F4007008660098006800687B
:101CE0000007002821D5FFE70098006812F0FCFAF1
:101CF000D0B1FFE700980068C0688004002812D4C3
:101D0000FFE70099086E20F4807008660098006E66
:101D1000C004002806D4FFE70099086E40F00100D7
:101D20000866FFE7FFE7FFE718E000980068C06873
:101D3000800790B9FFE70099086E20F4807008666C
:101D40000098006EC004002806D4FFE70099086ED2
:101D500040F001000866FFE7FFE7FFE7009805F0A5
:101D600093FC10E00098006EC006002804D5FFE741
:101D7000009805F091FC05E00098806DC16C019819
:101D80008847FFE7FFE702B080BD000000000000C9
:101D900080B582B001900198806B00900099086E28
:101DA00040F0400008660099486E40F00400486624
:101DB000009805F071FC02B080BD0000000000003A
:101DC00080B582B001900198806B0090009805F07A
:101DD0005FFC02B080BD000080B584B00290029824
:101DE000006812F051FA00900298006812F054FA5C
:101DF00000284BD0FFE70098002847D1FFE7029862
:101E00000068806800F00D00012809D1FFE7029802
:101E1000006812F0B9F902980168032008600DE02B
:101E20000299086E40F0100008660299486E40F072
:101E30000100486601208DF80F002BE00AF018FE23
:101E40000190FFE7029800688068C007E8B1FFE7EB
:101E50000AF00EFE0199401A032815D3FFE70298F5
:101E600000688068C00770B1FFE70299086E40F013
:101E7000100008660299486E40F001004866012093
:101E80008DF80F0006E0FFE7DCE7FFE700208DF8A4
:101E90000F00FFE79DF80F0004B080BD00000000B8
:101EA00080B586B004900498006812F0F5F9002817
:101EB00040F09280FFE70498006880683F21C8F2F4
:101EC000000108420ED0FFE70499086E40F01000B0
:101ED00008660499486E40F00100486601208DF8BC
:101EE00017007DE00498006812F06AF90AF0C0FD5E
:101EF000039004980168012042F20002C4F2020239
:101F0000914201900CD0FFE7049800684DF60071F3
:101F1000CBF6FD710844B0FA80F040090190FFE76C
:101F20000198C10746F20030C5F6020000291CBF27
:101F300042F20030C4F2020012F076F902900498E6
:101F4000006842F20011C4F20201884206D1FFE7A4
:101F500042F20000C4F20200009003E0049800681E
:101F60000090FFE7009804990968884203D0FFE7D2
:101F7000029880BBFFE7FFE7049800680068C0078D
:101F800040BBFFE70498006812F086F928B9FFE724
:101F90000498006812F014F9FFE70AF069FD03994C
:101FA000401A032815D3FFE7049800680068C007AB
:101FB00070B9FFE70499086E40F0100008660499B4
:101FC000486E40F00100486601208DF8170007E0D8
:101FD000FFE7D1E7FFE7FFE700208DF81700FFE7F5
:101FE0009DF8170006B080BD80B545F68870C2F236
:101FF000000006F0EDFF80BD80B540F60000C5F69C
:102000000200012211460AF01BFD80BD0000000005
:1020100080B540F60000C5F60200012100220AF05A
:102020000FFD80BD0000000080B588B000208DF855
:102030001E00FFF7EDFF8020049000F0D9FA552034
:10204000059000F0D5FA059800F0D2FA8DF81E0040
:10205000FFF7D2FF9620069003F086FFFFF7D8FF28
:10206000049800F0C5FA059800F0C2FA059800F04F
:10207000BFFA8DF81E00FFF7BFFF069803F074FF4C
:10208000FFF7C6FF7E20B62100F022FBFFF7B4FF6A
:10209000502003F055FFFFF7BBFF049800F0A8FAAB
:1020A000059800F0A5FA059800F0A2FA8DF81E0038
:1020B000FFF7A2FF069803F057FFFFF7A9FF049868
:1020C00000F096FA059800F093FA059800F090FA5F
:1020D0008DF81E00FFF790FF069803F045FF9DF86E
:1020E0001E001E2804D0FFE7FF208DF81F005CE0D3
:1020F00000208DF81D00FFE79DF81D00052850DC2D
:10210000FFE7FFF785FF9DF81D0000EB400240F25E
:102110009000C2F2000003908118805C497800F0C2
:10212000D7FAFFF769FF9620029003F01DFFFFF733
:102130006FFF03989DF81D1001EB4101405C40F0DA
:10214000800000F055FA5520019000F051FA0198F6
:1021500000F04EFA8DF81E00FFF74EFF029803F0D4
:1021600003FF03999DF81E009DF81D2002EB42021B
:102170001144497888420DD0FFE79DF81D0000EB1F
:10218000400140F29000C2F20000084480788DF8CF
:102190001F000AE0FFE79DF81D0001308DF81D00CB
:1021A000AAE700208DF81F00FFE79DF81F0008B088
:1021B00080BD00000000000080B540F60000C5F6BC
:1021C0000200082101220AF03BFC80BD0000000053
:1021D00080B540F60000C5F60200082100220AF092
:1021E0002FFC80BD0000000080B586B0002002906A
:1021F0008DF81600FFF7ECFF02980DF11601039120
:1022000000F0E2F9FFF7D8FF9620049003F0ACFE4F
:10221000FFF7DEFF0298039900F0D6F9FFF7CCFF35
:10222000049803F0A1FEFFF7D3FF1420B62100F0BD
:102230004FFAFFF7C1FF502003F082FEFFF7C8FFFF
:102240000298039900F0C0F9FFF7B6FF049803F075
:102250008BFEFFF7BDFF0298039900F0B5F9FFF779
:10226000ABFF049803F080FE9DF816000F2804D001
:10227000FFE7FF208DF8170053E000208DF81500D0
:10228000FFE79DF81500052847DCFFE7FFF7A0FFF3
:102290009DF8150000EB400240F23860C2F20000E9
:1022A00001908118805C497800F012FAFFF784FFF2
:1022B0009620009003F058FEFFF78AFF01989DF8E2
:1022C000151001EB4101405C0DF1160100F07CF9A5
:1022D000FFF772FF009803F047FE01999DF8160082
:1022E0009DF8152002EB42021144497888420DD036
:1022F000FFE79DF8150000EB400140F23860C2F2A4
:102300000000084480788DF817000AE0FFE79DF888
:10231000150001308DF81500B3E700208DF8170087
:10232000FFE79DF8170006B080BD00000000000028
:1023300080B584B00390002002900190FFF768FE02
:10234000922000F055F9122001A90091062200F018
:1023500017F9FFF751FE9DF804009DF8051040EABB
:102360000120039908849DF806009DF8071040EAB3
:102370000120039948849DF808009DF8091040EA5F
:1023800001200399888440F2D400C2F2000090ED4D
:10239000000A0399B1F9202001EE102AB8EEC11A03
:1023A00020EE010A81ED010A90ED000A0399B1F9CE
:1023B000222001EE102AB8EEC11A20EE010A81EDAA
:1023C000020A90ED000A0398B0F9241001EE101AE9
:1023D000B8EEC11A20EE010A80ED030AFFF718FEDD
:1023E000A22000F005F900992220022200F0C8F88E
:1023F000FFF702FE9DF804009DF80510C00040EABA
:102400005110039988850398B0F92C00B0F5806FBE
:1024100006DBFFE70399888DA0F500608885FFE75C
:102420000398B0F92C1000EE101AB8EEC01AB4EEF2
:10243000002AB3EE070AA1EE020A80ED070AFFF7B1
:10244000C7FE002001A9082200F09AF8FFF7B4FEA9
:102450009DF804000F2819D1FFE79DF806009DF8AC
:10246000071040EA01200399C8849DF808009DF8F0
:10247000091040EA0120039908859DF80A009DF89B
:102480000B1040EA012003994885FFE740F2D8008D
:10249000C2F2000090ED001A0399B1F9262000EE77
:1024A000102AB8EEC02A91ED0C0A91EE020A81EDD5
:1024B000040A90ED001A0399B1F9282000EE102AC1
:1024C000B8EEC02A91ED0D0A91EE020A81ED050ADF
:1024D00090ED001A0398B0F92A1000EE101AB8EE29
:1024E000C02A90ED0E0A91EE020A80ED060A04B0B1
:1024F00080BD00000000000080B582B000208DF893
:102500000700FFE7FFF790FD01469DF8070008432D
:102510008DF80700FFF768FE01469DF807000843A5
:102520008DF80700022003F00BFDFFE79DF8070080
:102530000028E7D1FFE740F6E010C2F2000000F00B
:1025400003F802B080BD000081B0009000994EF207
:10255000D150C3F67830086300994FF68F40CBF620
:1025600064304863009949F2B020C3F6C000886324
:1025700000990120087001B07047000000000000C1
:1025800080B584B08DF80F0002918DF807209DF87A
:102590000F0040F0800000F02BF8FFE79DF80700E7
:1025A00070B1FFE7552000F023F8029908700298F7
:1025B000013002909DF8070001388DF80700EDE723
:1025C00004B080BD0000000080B582B08DF8070027
:1025D00000919DF8070040F0800000F009F85520B8
:1025E00000F006F80099087002B080BD00000000FD
:1025F00080B582B08DF8070069466420086046F611
:102600007000C2F200000DF107010DF10602012376
:102610000EF06AFB9DF8060002B080BD00000000CD
:1026200080B582B08DED010ADDED010A45F2503032
:10263000C2F200009FED240A12F0FEFFFFE745F210
:102640005030C2F2000090ED0A0A90ED151AB4EE77
:10265000410AF1EE10FA07DDFFE745F25031C2F210
:102660000001486D88621BE045F25030C2F2000064
:1026700090ED0A0A90ED151AB1EE411AB4EE410A36
:10268000F1EE10FA0BDAFFE745F25030C2F200002B
:1026900090ED150AB1EE400A80ED0A0AFFE7FFE768
:1026A000FFE745F25030C2F2000090ED0A0ABCEE9E
:1026B000C00A10EE100A46F64411C2F20001096881
:1026C000086402B080BD00BF00002042000000008E
:1026D00080B582B08DF807008DF806109DF80700D0
:1026E000FFF786FF9DF80600FFF782FF02B080BD6E
:1026F00080B5A0B000200690189019900221049196
:102700001A91012105911B911C901D9046F2906039
:10271000C2F20000029018A908F082FE049A069BFB
:10272000029869460B60114608F006FF0599069A63
:10273000029808F085FD029809F042FF0499069876
:1027400010901190129113911490159046F23070E0
:10275000C2F20000039010A908F062FE049A069BE2
:10276000039869460B60114608F0E6FE069A039846
:10277000102108F065FD039808F032FF03980E223F
:10278000114608F009FF039809F01AFF049A059909
:102790000698089009900A920B910C900D9046F2C1
:1027A000D070C2F20000079008A908F039FE049A20
:1027B000069B079869460B60114608F0BDFE059917
:1027C000069A079808F03CFD079809F0F9FE20B03A
:1027D00080BD000000000000704700000000000005
:1027E00080B540F22801C2F2004101F1880246F6AC
:1027F0009010C2F200004FF4887317F041FE40F2CF
:102800000401C2F2004101F1120246F6E030C2F2C8
:102810000000242317F034FE80BD000000000000FB
:10282000FFE7FEE70000000080B5BEB03D9000224B
:1028300039923C9240F2B850C2F200003690012129
:10284000379111F09DFF1E203B901BF001F9399A42
:1028500036980221389111F093FF3B981BF0F8F85D
:102860003799399A40F28850C2F200003A9011F03C
:1028700087FF3B981BF0ECF83899399A3A9811F099
:102880007FFF3B981BF0E4F8399A3A98032111F046
:1028900077FF3B981BF0DCF8399A3A98042111F045
:1028A0006FFF3B981BF0D4F8FFE714F059FC40F29F
:1028B000DC00C2F20000007CC007002800F0D782D4
:1028C000FFE740F2DC00C2F20000807DC007002874
:1028D0006FD1FFE740F2B850C2F20000309040F2F2
:1028E000E851C2F200012F919FEDC32A8DED352AE8
:1028F000B0EE420AF0EE420AB0EE421AF0EE421A90
:1029000003F036FE2F9930989DED352A2831B0EE30
:10291000420AF0EE420AB0EE421AF0EE421A03F01A
:1029200027FE9DED352A40F28850C2F20000329019
:1029300040F2AC41C2F200013191B2EE041A8DEDC9
:10294000331AF0EE001ACDED341AB0EE420AF0EE72
:10295000420A03F089F9319932989DED331ADDED81
:10296000341A9DED352A2C31B0EE420AF0EE420ABF
:1029700003F07AF9319932989DED331ADDED341A6E
:102980009DED352A5831B0EE420AF0EE420A03F0CE
:102990006BF9319932989DED331ADDED341A9DEDC6
:1029A000352A8431B0EE420AF0EE420A03F05CF9B7
:1029B0005CE240F2DC00C2F20000807DC00700282B
:1029C00000F05382FFE740F2DC00C2F2000090F812
:1029D0002000C007002871D1FFE740F2B850C2F2D2
:1029E0000000289040F2E851C2F200012791F7EE72
:1029F000001ACDED291A9FED802A8DED2E2AB0EE1A
:102A0000420AF0EE420AB0EE421A03F0B1FD2799F5
:102A10002898DDED291A9DED2E2A2831B0EE420AC4
:102A2000F0EE420AB0EE421A03F0A2FD9DED2E2A0E
:102A300040F28850C2F200002B9040F2AC41C2F24A
:102A400000012A91B2EE041A8DED2C1AF0EE001A54
:102A5000CDED2D1AB0EE420AF0EE420A03F004F971
:102A60002A992B989DED2C1ADDED2D1A9DED2E2A1D
:102A70002C31B0EE420AF0EE420A03F0F5F82A9942
:102A80002B989DED2C1ADDED2D1A9DED2E2A583137
:102A9000B0EE420AF0EE420A03F0E6F82A992B98CB
:102AA0009DED2C1ADDED2D1A9DED2E2A8431B0EE10
:102AB000420AF0EE420A03F0D7F8D5E140F2DC001A
:102AC000C2F2000090F82000C007002800F0CB817F
:102AD000FFE740F2DC00C2F20000007FC0070028E0
:102AE00077D1FFE740F2DC00C2F200001F9090EDCA
:102AF0005F0AB1EE402A40F2B850C2F200002190C5
:102B000040F2E851C2F200012091DFED3B1ACDED19
:102B1000261AB0EE610AF0EE610AB0EE611A03F017
:102B200027FD1F9A20992198DDED261A92EDBF2AE4
:102B30002831B0EE610AF0EE610AB0EE611A03F0DE
:102B400017FD9DED262A40F28850C2F20000239026
:102B500040F2AC41C2F200012291B2EE041A8DEDB6
:102B6000241AF0EE001ACDED251AB0EE420AF0EE6E
:102B7000420A03F079F8229923989DED241ADDED9D
:102B8000251A9DED262A2C31B0EE420AF0EE420ABB
:102B900003F06AF8229923989DED241ADDED251A99
:102BA0009DED262A5831B0EE420AF0EE420A03F0BB
:102BB0005BF8229923989DED241ADDED251A9DEDF1
:102BC000262A8431B0EE420AF0EE420A03F04CF8B5
:102BD00048E140F2DC00C2F20000007FC00700289C
:102BE00000F03F81FFE740F2DC00C2F20000007E0F
:102BF000C007002875D101E00000000040F2DC00B1
:102C0000C2F20000199090ED5F0AB1EE402A40F246
:102C1000B850C2F200001B9040F2E851C2F200012D
:102C20001A915FED0B1ACDED1E1AB0EE610AF0EEAF
:102C3000610AB0EE611A03F09BFC199A1A991B986D
:102C4000DDED1E1A92EDBF2A2831B0EE610AF0EEDA
:102C5000610AB0EE611A03F08BFC9DED1E2A40F272
:102C60008850C2F200001D9040F2AC41C2F2000157
:102C70001C91B0EE420AF0EE420AB0EE421AF0EEBB
:102C8000421A02F0F1FF1C991D989DED1E2A2C316D
:102C9000B0EE420AF0EE420AB0EE421AF0EE421AEC
:102CA00002F0E2FF1C991D989DED1E2A5831B0EEEE
:102CB000420AF0EE420AB0EE421AF0EE421A02F078
:102CC000D3FF1C991D989DED1E2A8431B0EE420A57
:102CD000F0EE420AB0EE421AF0EE421A02F0C4FFE1
:102CE000BEE040F2DC00C2F20000007EC007002817
:102CF00000F0B580FFE740F2DC00C2F2000040784F
:102D0000012840F0AB80FFE740F2DC00C2F2000097
:102D100090F8C503C00700286FD0FFE740F2B85015
:102D2000C2F20000139040F2E851C2F20001129189
:102D30009FEDC42A8DED182AB0EE420AF0EE420A49
:102D4000B0EE421AF0EE421A03F012FC12991398F8
:102D50009DED182A2831B0EE420AF0EE420AB0EE9C
:102D6000421AF0EE421A03F003FC9DED182A40F2DD
:102D70008850C2F20000159040F2AC41C2F200014E
:102D80001491B1EE0C1A8DED161AF7EE001ACDED76
:102D9000171AB0EE420AF0EE420A02F065FF1499EB
:102DA00015989DED161ADDED171A9DED182A2C3198
:102DB000B0EE420AF0EE420A02F056FF149915985E
:102DC0009DED161ADDED171A9DED182A5831B0EE5B
:102DD000420AF0EE420A02F047FF149915989DED61
:102DE000161ADDED171A9DED182A8431B0EE420A4D
:102DF000F0EE420A02F038FF2FE040F2DC00C2F2AF
:102E000000000E9090ED5F0AB1EE402A40F2B850FB
:102E1000C2F20000109040F2E851C2F200010F919E
:102E2000DFED881ACDED111AB0EE610AF0EE610AFD
:102E3000B0EE611A03F09CFB0E9A0F991098DDED2D
:102E4000111A92EDBF2A2831B0EE610AF0EE610A44
:102E5000B0EE611A03F08CFBFFE7FFE7FFE7FFE747
:102E6000FFE7FFE7FFE7FFE7FFE7FFE7E6E040F206
:102E7000DC00C2F2000090F8CC03C007002871D03B
:102E8000FFE740F2B850C2F20000079040F2E8516C
:102E9000C2F200010691F1EE041ACDED081A9FED81
:102EA000692A8DED0D2AB0EE420AF0EE420AB0EE2C
:102EB000421A03F05DFB06990798DDED081A9DEDB7
:102EC0000D2A2831B0EE420AF0EE420AB0EE421A64
:102ED00003F04EFB9DED0D2A40F28850C2F2000037
:102EE0000A9040F2AC41C2F200010991B2EE041A1C
:102EF0008DED0B1AF0EE001ACDED0C1AB0EE420A71
:102F0000F0EE420A02F0B0FE09990A989DED0B1A04
:102F1000DDED0C1A9DED0D2A2C31B0EE420AF0EEDB
:102F2000420A02F0A1FE09990A989DED0B1ADDED07
:102F30000C1A9DED0D2A5831B0EE420AF0EE420A0D
:102F400002F092FE09990A989DED0B1ADDED0C1A1C
:102F50009DED0D2A8431B0EE420AF0EE420A02F0F5
:102F600083FE6AE040F2B850C2F20000029040F2E4
:102F7000E851C2F2000101919FED322A8DED052A40
:102F8000B0EE420AF0EE420AB0EE421AF0EE421AF9
:102F900003F0EEFA019902989DED052A2831B0EE72
:102FA000420AF0EE420AB0EE421AF0EE421A03F084
:102FB000DFFA9DED052A40F28850C2F2000004902D
:102FC00040F2AC41C2F200010391B0EE420AF0EED1
:102FD000420AB0EE421AF0EE421A02F045FE0399A0
:102FE00004989DED052A2C31B0EE420AF0EE420A1B
:102FF000B0EE421AF0EE421A02F036FE039904983F
:103000009DED052A5831B0EE420AF0EE420AB0EECC
:10301000421AF0EE421A02F027FE039904989DED41
:10302000052A8431B0EE420AF0EE420AB0EE421AAE
:10303000F0EE421A02F018FEFFE7FFE701201AF057
:1030400007FD32E40000000081B000900098407855
:1030500001282CD1FFE740F6E820C2F2000090EDF5
:10306000000AB0EEC00AB1EE0C1AB4EE410AF1EE5D
:1030700010FA07DDFFE70099B1F8CA030130A1F8A3
:10308000CA03FFE70098B0F8CA03B0F5FA7F0DDD78
:10309000FFE700990020A1F8CA03009A012182F8F5
:1030A000CC130099487000990874FFE7FFE7009877
:1030B00090F8CC03C007C0B1FFE70099B1F8CA038C
:1030C0000130A1F8CA030099002008740098B0F8F4
:1030D000CA03C92808DBFFE70099002081F8CC0368
:1030E0000099A1F8CA03FFE7FFE701B070470000AD
:1030F00081B0009000984078012840F0B080FFE750
:1031000000980078022835D1FFE740F65C10C2F243
:103110000000407D4009C007D0B1FFE740F63030E5
:10312000C2F20000C07CC00790B9FFE7009A92F895
:10313000C413012020EA010182F8C413009A00217F
:1031400082F8C81340F63031C2F20001C87410E0B2
:1031500040F65C10C2F20000407D4009C00738B95B
:10316000FFE740F63031C2F200010020C874FFE7EB
:10317000FFE7FFE7009890F8C403C00730B3FFE70C
:10318000009890F8C503C00700BBFFE7009948F618
:103190005C70C3F6C260C1F8CC000099C1F84C0263
:1031A00040F6E820C2F2000090ED000AB0EEC00A3E
:1031B000B2EE041AB4EE410AF1EE10FA05DDFFE7B3
:1031C0000099012081F8C503FFE7FFE7009890F818
:1031D000C503C007A0B3FFE7009890F8C803C00775
:1031E00070BBFFE7009890ED300A9FED1E1AB4EE19
:1031F000410AF1EE10FA22DCFFE7009890ED900A08
:103200009FED181AB4EE410AF1EE10FA17DCFFE751
:103210000099B1F8C6030130A1F8C6030098B0F8D0
:10322000C603B0F5967F09DDFFE70099012081F81C
:10323000C80300990020A1F8C603FFE7FFE7FFE7F6
:10324000009890F8C803C00740B1FFE7009900203C
:1032500081F8C503009981F8C803FFE7FFE701B0D3
:10326000704700BF8FC2F53D80B586B0059040F233
:103270005C50C2F200008169059AC2F8481390EDD3
:10328000061A9FEDE00A30EE410A059880EDD40A57
:10329000059890EDD40A9FEDDC1AB4EE410AF1EEE8
:1032A00010FA0ADBFFE7059890EDD40A9FEDE31AC8
:1032B00030EE010A80EDD40AFFE7059890EDD40ABC
:1032C0009FEDDF1AB4EE410AF1EE10FA0ADCFFE7D7
:1032D000059890EDD40A9FEDDB1A30EE010A80EDDF
:1032E000D40AFFE7059890EDD40A9FEDD71A60EE57
:1032F000010A40F61C60C2F2000000909FEDCE0A69
:103300008DED030A12F098F9009890ED0A0A40F644
:10331000E821C2F200010291D1ED0C0A643012F0F2
:103320008BF90098D0F88C10059AC2F8941190EDA2
:10333000230AB1EE400A059880EDC50A0598D0ED44
:10334000300A90ED330A40F65440C2F2000001907A
:1033500012F072F90198059981ED670A0599D1ED8E
:10336000900A91ED930A643012F066F90298B0EE7B
:10337000401A9DED030A059981EDC71A90ED031AD5
:10338000B3EE0E2A21EE421A059981ED661A90EDF0
:10339000031A21EE021A059880EDC61A059890EDE1
:1033A000571A90EDB72A71EE420A40F6F030C2F299
:1033B0000000049012F040F9049890ED0A0AB1EE72
:1033C000400A059981ED630A90ED0A0AB1EE400AC0
:1033D000059880EDC30A05990020C4F2C820C1F801
:1033E0002C010599C1F8AC02059890F87801C00746
:1033F00088B1FFE705990020C1F894010599C1F84B
:1034000090010599C1F8980105990020C4F248304F
:10341000C1F82C01FFE7059890F8F802C00788B1C1
:10342000FFE705990020C1F814030599C1F81003BE
:103430000599C1F8180305990020C4F24830C1F875
:10344000AC02FFE7059890ED640A90ED651A30EE46
:10345000010A80ED5F0A059890EDC40A90EDC51A47
:1034600030EE010A80EDBF0A0598007FC00758B909
:10347000FFE70599D1F89401C1F87C010599D1F8CD
:103480001403C1F8FC02FFE7FFE7059890ED5F0A1F
:103490009FED6E1AB4EE410AF1EE10FA07DDFFE778
:1034A00005990020C4F25820C1F87C0112E005986B
:1034B00090ED5F0A9FED661AB4EE410AF1EE10FA44
:1034C00007DAFFE705990020CCF25820C1F87C010B
:1034D000FFE7FFE7FFE7FFE7059890EDBF0A9FEDE5
:1034E0005B1AB4EE410AF1EE10FA07DDFFE7059929
:1034F0000020C4F25820C1F8FC0212E0059890EDBB
:10350000BF0A9FED531AB4EE410AF1EE10FA07DA42
:10351000FFE705990020CCF25820C1F8FC02FFE734
:10352000FFE7FFE7059890ED4B0A90ED661A90EDE6
:10353000672A30EE020A30EE010A80ED610A059832
:1035400090EDAB0A90EDC61A90EDC72A30EE020A54
:1035500030EE010A80EDC10A05994FF07E50C1F8A6
:103560004403059890ED621A90ED630A90EDD12A1C
:10357000A1EE420A80ED600A059890ED630A90ED95
:10358000C21A90EDD12AA1EE020A80EDC00AFFE72F
:10359000059890ED600A9FED2D1AB4EE410AF1EE08
:1035A00010FA07DDFFE705990020C4F25820C1F8A2
:1035B000800112E0059890ED600A9FED251AB4EEA7
:1035C000410AF1EE10FA07DAFFE705990020CCF284
:1035D0005820C1F88001FFE7FFE7FFE7FFE7059804
:1035E00090EDC00A9FED191AB4EE410AF1EE10FAFF
:1035F0000CDDFFE705990020C4F25820C1F8000354
:1036000017E000BF00000000DC0F4940059890ED76
:10361000C00A9FED0F1AB4EE410AF1EE10FA07DA74
:10362000FFE705990020CCF25820C1F80003FFE71E
:10363000FFE7FFE706B080BD00000000DC0FC9C057
:10364000DC0F49C0DC0FC940DF2E65420000584244
:10365000000058C20000000080B582B001900198BF
:103660000078002866D0FFE701980078012822D171
:10367000FFE740F65C10C2F20000C07A012808D0D3
:10368000FFE740F65C10C2F20000C07A032804D1C4
:10369000FFE70199012008740CE0019900200874EB
:1036A00001984078012804D1FFE701990020487073
:1036B000FFE7FFE73DE001980078022838D1FFE7F7
:1036C00040F65C10C2F20000407D8008C007E8B1FF
:1036D000FFE740F63030C2F20000007CC007A8B916
:1036E000FFE701984078012804D1FFE70199002005
:1036F0004870FFE7019A117C012020EA0101117452
:1037000040F63031C2F20001087410E040F65C105F
:10371000C2F20000407D8008C00738B9FFE740F6DC
:103720003031C2F2000100200874FFE7FFE7FFE735
:10373000FFE705E001990020087401994870FFE750
:103740000198FFF781FC0198007CC007002800F079
:103750002C81FFE701984078002840F02681FFE7A0
:1037600001990020A1F8CA03019981F8CC030199BD
:1037700081F8C403019981F8C503019981F8C80350
:103780000199A1F8C6030198807DC007002874D173
:10379000FFE740F2AC40C2F2000090ED060A9FED58
:1037A000951AB4EE410AF1EE10FA04DDFFE7019933
:1037B0000120887403E0019900208874FFE740F23B
:1037C000AC40C2F2000090ED110A9FED8B1AB4EEEE
:1037D000410AF1EE10FA04DAFFE701990120C874FA
:1037E00003E001990020C874FFE740F2AC40C2F248
:1037F000000090ED1C0A9FED801AB4EE410AF1EE34
:1038000010FA04DAFFE701990120087503E0019935
:1038100000200875FFE740F2AC40C2F2000090EDD6
:10382000270A9FED741AB4EE410AF1EE10FA04DD96
:10383000FFE701990120487503E0019900204875D0
:10384000FFE70199887CCB7C0A7D497D00F001006F
:1038500003F00103184402F00102104401F00101D9
:103860000844042804D1FFE701990120887503E08A
:10387000019900208875FFE796E00198807DC007D8
:10388000002800F09080FFE7019890F82000C00722
:1038900058BBFFE740F2E850C2F2000090ED070A83
:1038A00090ED111A30EE410AB8EE001A80EE010ACE
:1038B000B0EEC00A9FED4E1AB4EE410AF1EE10FAD6
:1038C00012DAFFE70199488C013048840198408C56
:1038D000C82808D1FFE70199012081F8200001994B
:1038E00000204884FFE7FFE75CE0019890F82000A3
:1038F000C007002855D0FFE70198007FC00720BB14
:10390000FFE7019890EDCA0AB0EEC00AB7EE001AC0
:10391000B4EE410AF1EE10FA04DDFFE70199002050
:10392000087711E00199C88B0130C8830198C08BDA
:10393000B0F5967F07DDFFE701990120087701992F
:103940000020C883FFE7FFE72AE00198007FC00757
:1039500028B3FFE70198007EC007A8B9FFE740F64B
:10396000E820C2F2000090ED000AB0EEC00AB1EE0D
:10397000041AB4EE410AF1EE10FA04DAFFE70199F5
:1039800001200876FFE709E00198007EC00720B11A
:10399000FFE7019901204870FFE7FFE7FFE7FFE736
:1039A000FFE7FFE7FFE7FFE7FFE70198007CC007BD
:1039B000E0B9FFE701984078C0B9FFE7019900201E
:1039C000009088740199C874019908750199487527
:1039D0000199887501990876019908770199C8833A
:1039E000019981F8200001994884FFE702B080BD69
:1039F000CDCC4C3E0AD723BF0AD7233F000000009E
:103A000080B5DAB059905998D0F8C000589040F27B
:103A10005860C2F20000279090ED010A8DED020A75
:103A20009DED580AF0EE080ACDED500A1CF038FB67
:103A300027988DED010A90ED020A8DED030A9DEDA8
:103A4000580AF0EE000ACDED520A1CF029FB9DED5C
:103A5000012A9DED021A2798DDED500AB0EE403A9A
:103A60009DED030A20EE030AA1EE020A9DED583AED
:103A700090ED032A90ED041AA2EE030A30EE010A3B
:103A8000599880ED0D0A40F27060C2F200002B9050
:103A900090ED010A8DED050A9DED580A1CF000FB22
:103AA0002B98DDED520A8DED040A90ED020A8DEDA2
:103AB000060A9DED580A1CF0F3FA9DED042A9DEDCF
:103AC000051A2B98DDED500AB0EE403A9DED060A3E
:103AD00020EE030AA1EE020A9DED583A90ED032A6A
:103AE00090ED041AA2EE030A30EE010A599880ED17
:103AF0000E0A40F28860C2F200002F9090ED010A99
:103B00008DED080A9DED580A1CF0CAFA2F98DDEDDC
:103B1000520A8DED070A90ED020A8DED090A9DED1E
:103B2000580A1CF0BDFA9DED072A9DED081A2F9842
:103B3000DDED500AB0EE403A9DED090A20EE030A91
:103B4000A1EE020A9DED583A90ED032A90ED041A79
:103B5000A2EE030A30EE010A599880ED0F0A40F2F6
:103B6000A060C2F20000339090ED010A8DED0B0AC7
:103B70009DED580A1CF094FA3398DDED520A8DED54
:103B80000A0A90ED020A8DED0C0A9DED580A1CF010
:103B900087FA9DED0A2A9DED0B1A3398DDED500A48
:103BA000B0EE403A9DED0C0A20EE030AA1EE020AA7
:103BB0009DED583A90ED032A90ED041AA2EE030A07
:103BC00030EE010A599880ED100A40F2B860C2F256
:103BD0000000379090ED010A8DED0E0A9DED580A18
:103BE0001CF05EFA3798DDED520A8DED0D0A90ED6E
:103BF000020A8DED0F0A9DED580A1CF051FA9DED59
:103C00000D2A9DED0E1A3798DDED500AB0EE403AC0
:103C10009DED0F0A20EE030AA1EE020A9DED583A2F
:103C200090ED032A90ED041AA2EE030A30EE010A89
:103C3000599880ED110A40F2D060C2F200003B902A
:103C400090ED010A8DED110A9DED580A1CF028FA3D
:103C50003B98DDED520A8DED100A90ED020A8DEDD4
:103C6000120A9DED580A1CF01BFA9DED102A9DEDDD
:103C7000111A3B98DDED500AB0EE403A9DED120A64
:103C800020EE030AA1EE020A9DED583A90ED032AB8
:103C900090ED041AA2EE030A30EE010A599880ED65
:103CA000120A40F2E860C2F200003F9090ED010A73
:103CB0008DED140A9DED580A1CF0F2F93F98DDEDE8
:103CC000520A8DED130A90ED020A8DED150A9DED55
:103CD000580A1CF0E5F99DED132A9DED141A3F9842
:103CE000DDED500AB0EE403A9DED150A20EE030AD4
:103CF000A1EE020A9DED583A90ED032A90ED041AC8
:103D0000A2EE030A30EE010A599880ED130A40F240
:103D10000070C2F20000439090ED010A8DED170A89
:103D20009DED580A1CF0BCF94398DDED520A8DED6B
:103D3000160A90ED020A8DED180A9DED580A1CF046
:103D4000AFF99DED162A9DED171A4398DDED500A47
:103D5000B0EE403A9DED180A20EE030AA1EE020AE9
:103D60009DED583A90ED032A90ED041AA2EE030A55
:103D700030EE010A599880ED140A40F21870C2F230
:103D80000000479090ED010A8DED1A0A9DED580A4A
:103D90001CF086F94798DDED520A8DED190A90ED79
:103DA000020A8DED1B0A9DED580A1CF079F99DED74
:103DB000192A9DED1A1A4798DDED500AB0EE403AE7
:103DC0009DED1B0A20EE030AA1EE020A9DED583A72
:103DD00090ED032A90ED041AA2EE030A30EE010AD8
:103DE000599880ED150A40F23070C2F200004B90F5
:103DF00090ED010A8DED1D0A9DED580A1CF050F959
:103E00004B98DDED520A8DED1C0A90ED020A8DED06
:103E10001E0A9DED580A1CF043F99DED1C2A9DEDEC
:103E20001D1A4B98DDED500AB0EE403A9DED1E0A8A
:103E300020EE030AA1EE020A9DED583A90ED032A06
:103E400090ED041AA2EE030A30EE010A599880EDB3
:103E5000160A40F24870C2F200004F9090ED010A3D
:103E60008DED200A9DED580A1CF01AF94F98DDEDF2
:103E7000520A8DED1F0A90ED020A8DED210A9DED8B
:103E8000580A1CF00DF99DED1F2A9DED201A4F9840
:103E9000DDED500AB0EE403A9DED210A20EE030A16
:103EA000A1EE020A9DED583A90ED032A90ED041A16
:103EB000A2EE030A30EE010A599880ED170A40F28B
:103EC0006070C2F20000559090ED010A8DED230A5A
:103ED0009DED580A1CF0E4F8DDED520A55988DED81
:103EE000220A90ED020A8DED240A9DED580A1CF07D
:103EF000D7F89DED222A9DED231A2798DDED500A73
:103F00005599B0EE403A9DED240A20EE030AA1EE49
:103F1000020A9DED583A91ED032A91ED041AA2EEA2
:103F2000030A30EE010A599981ED180A5999D1F81E
:103F30004012579190ED010A8DED260A9DED570A2A
:103F40001CF0AEF82798DDED520A8DED250A90EDB4
:103F5000020A8DED280A9DED570A1CF0A1F89DED8F
:103F6000252A9DED261A27992B98DDED500AB0EEF3
:103F7000403A9DED280A20EE030AA1EE020A9DEDCB
:103F8000573A91ED032A91ED041AA2EE030A30EE9E
:103F9000010A599981ED6D0A90ED010A8DED2A0A09
:103FA0009DED570A1CF07CF82B98DDED520A8DED43
:103FB000290A90ED020A8DED2C0A9DED570A1CF09E
:103FC0006FF89DED292A9DED2A1A2B992F98DDED8A
:103FD000500AB0EE403A9DED2C0A20EE030AA1EE05
:103FE000020A9DED573A91ED032A91ED041AA2EED3
:103FF000030A30EE010A599981ED6E0A90ED010A2B
:104000008DED2E0A9DED570A1CF04AF82F98DDED34
:10401000520A8DED2D0A90ED020A8DED300A9DEDCC
:10402000570A1CF03DF89DED2D2A9DED2E1A2F9973
:104030003398DDED500AB0EE403A9DED300A20EEA7
:10404000030AA1EE020A9DED573A91ED032A91ED84
:10405000041AA2EE030A30EE010A599981ED6F0AA3
:1040600090ED010A8DED320A9DED570A1CF018F80B
:104070003398DDED520A8DED310A90ED020A8DED97
:10408000340A9DED570A1CF00BF89DED312A9DED89
:10409000321A33993798DDED500AB0EE403A9DED73
:1040A000340A20EE030AA1EE020A9DED573A91ED83
:1040B000032A91ED041AA2EE030A30EE010A59997F
:1040C00081ED700A90ED010A8DED360A9DED570ADB
:1040D0001BF0E6FF3798DDED520A8DED350A90EDC5
:1040E000020A8DED380A9DED570A1BF0D9FF9DEDB0
:1040F000352A9DED361A37993B98DDED500AB0EE22
:10410000403A9DED380A20EE030AA1EE020A9DED29
:10411000573A91ED032A91ED041AA2EE030A30EE0C
:10412000010A599981ED710A90ED010A8DED3A0A63
:104130009DED570A1BF0B4FF3B98DDED520A8DED63
:10414000390A90ED020A8DED3C0A9DED570A1BF0ED
:10415000A7FF9DED392A9DED3A1A3B993F98DDED79
:10416000500AB0EE403A9DED3C0A20EE030AA1EE63
:10417000020A9DED573A91ED032A91ED041AA2EE41
:10418000030A30EE010A599981ED720A90ED010A95
:104190008DED3E0A9DED570A1BF082FF3F98DDED45
:1041A000520A8DED3D0A90ED020A8DED400A9DED1B
:1041B000570A1BF075FF9DED3D2A9DED3E1A3F9974
:1041C0004398DDED500AB0EE403A9DED400A20EEF6
:1041D000030AA1EE020A9DED573A91ED032A91EDF3
:1041E000041AA2EE030A30EE010A599981ED730A0E
:1041F00090ED010A8DED420A9DED570A1BF050FF2C
:104200004398DDED520A8DED410A90ED020A8DEDE5
:10421000440A9DED570A1BF043FF9DED412A9DED99
:10422000421A43994798DDED500AB0EE403A9DEDB1
:10423000440A20EE030AA1EE020A9DED573A91EDE1
:10424000032A91ED041AA2EE030A30EE010A5999ED
:1042500081ED740A90ED010A8DED460A9DED570A35
:104260001BF01EFF4798DDED520A8DED450A90EDDB
:10427000020A8DED480A9DED570A1BF011FF9DEDD6
:10428000452A9DED461A47994B98DDED500AB0EE50
:10429000403A9DED480A20EE030AA1EE020A9DED88
:1042A000573A91ED032A91ED041AA2EE030A30EE7B
:1042B000010A599981ED750A90ED010A8DED4A0ABE
:1042C0009DED570A1BF0ECFE4B98DDED520A8DED8B
:1042D000490A90ED020A8DED4C0A9DED570A1BF03C
:1042E000DFFE9DED492A9DED4A1A4B994F98DDED71
:1042F000500AB0EE403A9DED4C0A20EE030AA1EEC2
:10430000020A9DED573A91ED032A91ED041AA2EEAF
:10431000030A30EE010A599981ED760A90ED010AFF
:104320008DED4E0A9DED570A1BF0BAFE4F98DDED5C
:10433000520A8DED4D0A90ED020A8DED510A9DED68
:10434000570A1BF0ADFE9DED4D2A9DED4E1A4F997B
:10435000DDED500A5598B0EE403A9DED510A20EE41
:10436000030AA1EE020A9DED573A91ED032A91ED61
:10437000041AA2EE030A30EE010A599981ED770A78
:1043800090ED010A8DED540A9DED570A1BF088FE51
:10439000DDED520A55988DED530A90ED020A8DED30
:1043A000560A9DED570A1BF07BFE9DED532A9DEDAD
:1043B000541A5598B0EE403A9DED560A20EE030A85
:1043C000A1EE020A9DED573A90ED032A90ED041AF2
:1043D000A2EE030A30EE010A599880ED780A5AB02D
:1043E00080BD00000000000083B00290029890F8A9
:1043F0007801C007B8B1FFE7029900200190486337
:10440000029988630299C863029908640299486412
:104410000299886402994865029988650299C8657D
:1044200002990866FFE7029890F8F802C00708B3FF
:10443000FFE7029900200090C1F8B4010299C1F889
:10444000B8010299C1F8BC010299C1F8C0010299F2
:10445000C1F8C4010299C1F8C8010299C1F8D40198
:104460000299C1F8D8010299C1F8DC010299C1F89A
:10447000E001FFE7029890ED0D1A90ED190A20EE89
:10448000010A80ED1F0A029890ED0E1A90ED1A0AAB
:1044900020EE010A80ED200A029890ED0F1A90EDAF
:1044A0001B0A20EE010A80ED210A029890ED101AF5
:1044B00090ED1C0A20EE010A80ED220A029890ED90
:1044C000111A90ED1D0A20EE010A80ED230A0298D0
:1044D00090ED121A90ED1E0A20EE010A80ED240ADA
:1044E000029890ED1F0A90ED203A90ED212A90ED70
:1044F000221A30EE030A30EE020A30EE010A90ED85
:10450000231A30EE010A90ED241A30EE010A80EDF4
:10451000640AFFE7029890ED640AB2EE091AB4EE5D
:10452000410AF1EE10FA07DDFFE702990020C4F21C
:104530004810C1F8900112E0029890ED640ABAEEBA
:10454000091AB4EE410AF1EE10FA07DAFFE7029910
:104550000020CCF24810C1F89001FFE7FFE7FFE729
:10456000029890ED6D1A90ED790A20EE010A80ED27
:104570007F0A029890ED6E1A90ED7A0A20EE010AF9
:1045800080ED800A029890ED6F1A90ED7B0A20EE84
:10459000010A80ED810A029890ED701A90ED7C0A74
:1045A00020EE010A80ED820A029890ED711A90EDDA
:1045B0007D0A20EE010A80ED830A029890ED721ABE
:1045C00090ED7E0A20EE010A80ED840A029890EDBB
:1045D0007F0A90ED803A90ED812A90ED821A30EEBC
:1045E000030A30EE020A30EE010A90ED831A30EE33
:1045F000010A90ED841A30EE010A80EDC40AFFE74B
:10460000029890EDC40AB2EE091AB4EE410AF1EE36
:1046100010FA07DDFFE702990020C4F24810C1F844
:10462000100312E0029890EDC40ABAEE091AB4EE33
:10463000410AF1EE10FA07DAFFE702990020CCF206
:104640004810C1F81003FFE7FFE7FFE7029890ED7D
:10465000131A90ED190A20EE010A80ED250A02983E
:1046600090ED141A90ED1A0A20EE010A80ED260A48
:10467000029890ED151A90ED1B0A20EE010A80EDCC
:10468000270A029890ED161A90ED1C0A20EE010AF6
:1046900080ED280A029890ED171A90ED1D0A20EE81
:1046A000010A80ED290A029890ED181A90ED1E0A71
:1046B00020EE010A80ED2A0A029890ED250A90ED7D
:1046C000263A90ED272A90ED281A30EE030A30EEB4
:1046D000020A30EE010A90ED291A30EE010A90ED3F
:1046E0002A1A30EE010A80ED620AFFE7029890ED87
:1046F000620A9FED4D1AB4EE410AF1EE10FA07DDA1
:10470000FFE702990020C4F27020C1F8880112E08E
:10471000029890ED620A9FED451AB4EE410AF1EE5F
:1047200010FA07DAFFE702990020CCF27020C1F8F6
:104730008801FFE7FFE7FFE7029890ED731A90ED1D
:10474000790A20EE010A80ED850A029890ED741A2C
:1047500090ED7A0A20EE010A80ED860A029890ED2B
:10476000751A90ED7B0A20EE010A80ED870A029807
:1047700090ED761A90ED7C0A20EE010A80ED880A11
:10478000029890ED771A90ED7D0A20EE010A80EDF7
:10479000890A029890ED781A90ED7E0A20EE010ABF
:1047A00080ED8A0A029890ED850A90ED863A90EDA8
:1047B000872A90ED881A30EE030A30EE020A30EEB6
:1047C000010A90ED891A30EE010A90ED8A1A30EE56
:1047D000010A80EDC20AFFE7029890EDC20A9FED40
:1047E000121AB4EE410AF1EE10FA07DDFFE7029962
:1047F0000020C4F27020C1F8080312E0029890ED86
:10480000C20A9FED0A1AB4EE410AF1EE10FA07DA75
:10481000FFE702990020CCF27020C1F80803FFE7FF
:10482000FFE7FFE703B0704700007042000070C26E
:1048300081B00090009890ED500A90ED571A30EE3C
:10484000410A80ED190A009890ED510A90ED591A2D
:1048500030EE410A80ED1A0A009890ED4E0A90ED74
:10486000551A30EE410A80ED1B0A009890EDCE1AE1
:1048700090EDD00A30EE410A80ED1C0A009890EDD0
:104880004C0A90ED521A30EE410A80ED1D0A009854
:1048900090ED4D0A90ED531A30EE410A80ED1E0A5C
:1048A000009890EDB00A90EDB71A30EE410A80ED15
:1048B000790A009890EDB10A90EDB91A30EE410AEC
:1048C00080ED7A0A009890EDAE0A90EDB51A30EEC0
:1048D000410A80ED7B0A009890EDCE1A90EDD00A47
:1048E00030EE410A80ED7C0A009890EDAC0A90ED24
:1048F000B21A30EE410A80ED7D0A009890EDAD0AC3
:1049000090EDB31A30EE410A80ED7E0A01B0704797
:1049100080B594B0139040F6E820C2F2000090ED0C
:10492000090AB1EE400A139981ED520A90ED0A0A84
:10493000B1EE400A139981ED530A139991ED380AAB
:1049400091ED521A9FEDC03A33EE400A30EE410A23
:104950009FEDBE1A30EE010A81ED570A139991EDD1
:10496000570A91ED581A30EE410A9FEDB91A80EEC0
:10497000010A81ED590A139AD2F85C11C2F860114C
:1049800090ED090AB1EE400A139981EDB20A90ED5B
:104990000A0AB1EE400A139880EDB30A139890ED1D
:1049A000980A90EDB22A30EE430A30EE420A80EDCA
:1049B000B70A139890EDB70A90EDB82A30EE420A84
:1049C00080EE010A80EDB90A1399D1F8DC02C1F832
:1049D000E00213984078012840F0C880FFE740F2D9
:1049E000E850C2F200000A9090ED070AB1EE403A9A
:1049F000139890ED301A90ED3E4A90ED570A90EDE5
:104A0000592A33EE443A40F6E820C2F200000B90F7
:104A100090ED0A4A33EE443A8DED093A21EE021A3E
:104A20008DED0C1A18F0E2FA9DED091A0A990B980F
:104A3000B0EE402A9DED0C0A20EE020A9FED852A79
:104A40008DED0D2AA1EE020A139A82ED0C0A139A3B
:104A500092ED0A0A92EDCC1A9FED7D2A8DED112A76
:104A6000A1EE020A82ED0B0A139A92ED0B1A92ED57
:104A70000C0A9FED792A8DED0F2A20EE020A9FED98
:104A8000772A8DED102AA1EE020A82ED0A0A139B05
:104A90009A6AC3F8582191ED113A139991ED901A41
:104AA00091ED9E4A91EDB70A91EDB92A33EE043AA1
:104AB00090ED0A4A33EE443A8DED0E3A21EE021A99
:104AC0008DED121A18F092FA9DED0D5A9DED0E1A09
:104AD0009DED0F4A9DED103A9DED112AB0EE406A12
:104AE0009DED120A20EE060AA1EE050A139880ED4C
:104AF0006C0A139890ED6A0A90EDCC1AA1EE020AA6
:104B000080ED6B0A139890ED6B1A90ED6C0A20EE15
:104B1000040AA1EE030A80ED6A0A1399D1F8A801EC
:104B2000C1F8D802139890ED560A90EDB61A30EEFF
:104B3000010AB0EE001A80EE010A9FED491A20EE3C
:104B4000010A80EDCE0A139890ED550A90EDCE1A29
:104B5000A1EE020A80ED550A139890EDB50A90ED8A
:104B6000CE1AA1EE020A80EDB50A0AE013990020E0
:104B7000C1F858011399C1F838031399C1F8D80244
:104B8000FFE740F6E820C2F20000049090ED0C0A26
:104B900090ED0E1A8DED011AF0EE000A1BF080FA6E
:104BA0000498B0EE401A9DED010A9FED2E2AA1EE69
:104BB000020A8DED020A90ED090AB1EE400A18F0E2
:104BC00079FD0498B0EE401A9DED020A9FED262A69
:104BD0008DED032A91EE020A8DED070A90ED090A88
:104BE000B1EE400A18F002FA04988DED060A90ED35
:104BF000090A90ED0F1A8DED051AB1EE400A18F072
:104C0000F5F99DED032A0498B0EE401A9DED050AD2
:104C1000A1EE020A8DED080A90ED090AB1EE400AF4
:104C200018F048FD9DED062A9DED071AB0EE403ABA
:104C30009DED080A20EE030AA1EE020A139880ED0A
:104C4000CC0A14B080BD00BFDC0FC93F0AD7A3BC9B
:104C50006F12833A0AD7A33DCDCC4C3ECDCC4C3F0E
:104C600039B4683F2FDD243EEE7C1BC100000000FC
:104C700081B0009040F65C10C2F20000807DC00759
:104C8000C8B9FFE740F65C10C2F20000C07A012804
:104C90000CD1FFE740F65C10C2F20000807A0128D8
:104CA00004D1FFE700990220087003E00099012079
:104CB0000870FFE703E0009900200870FFE701B0EB
:104CC000704700000000000080B582B0019001989C
:104CD0000078012819D1FFE7019890EDD00A40F63D
:104CE0005C10C2F20000B0F9060001EE100AB8EE46
:104CF000C11A9FED7A2A61EE020A9FED771A18F029
:104D000047FD019880EDD00A79E0019800780228EB
:104D100074D1FFE7019890EDD00A40F65C10C2F222
:104D200000000090017D01F00100C1F34001401A34
:104D300001EE100AB8EEC11A71EE010A9FED661A73
:104D400018F026FD0098019981EDD00A407D0009F8
:104D5000C00708B3FFE740F63030C2F20000807CA5
:104D6000C007C8B9FFE70198C07820B9FFE70199EB
:104D70000120C87009E00198C078012804D1FFE73C
:104D800001990020C870FFE7FFE740F63031C2F21A
:104D900000010120887410E040F65C10C2F20000AF
:104DA000407D0009C00738B9FFE740F63031C2F254
:104DB000000100208874FFE7FFE70198C07858B928
:104DC000FFE701994FF2C350C3F62860C1F8CC0049
:104DD0000199C1F84C0210E00198C07801280BD16C
:104DE000FFE7019948F65C70C3F6C260C1F8CC00D9
:104DF0000199C1F84C02FFE7FFE7FFE7FFE70198E1
:104E000090F8C403C00750B3FFE7FFE7019890EDA7
:104E1000D00A9FED351AB4EE410AF1EE10FA08DD22
:104E2000FFE7019949F69A10C3F69970C1F840035B
:104E300013E0019890EDD00A9FED2C1AB4EE410AD0
:104E4000F1EE10FA08DAFFE7019949F69A10CBF66D
:104E50009970C1F84003FFE7FFE7FFE729E0FFE7AC
:104E6000019890EDD00A9FED1E1AB4EE410AF1EEC2
:104E700010FA08DDFFE7019946F26660C3F6E670B6
:104E8000C1F8400313E0019890EDD00A9FED151A88
:104E9000B4EE410AF1EE10FA08DAFFE7019946F2A2
:104EA0006660CBF6E670C1F84003FFE7FFE7FFE777
:104EB000FFE7019890EDD00AB5EE400AF1EE10FA46
:104EC00008D0FFE701990020C1F854010199C1F809
:104ED000D402FFE702B080BDA69BC43AF792463BDE
:104EE0006666E63F6666E6BF9A99993F9A9999BFCA
:104EF00080B58EB00D9040F65440C2F2000005908F
:104F000040F29472C2F2000206920121099110F05F
:104F100033FD0598069A0999643010F02DFD099922
:104F200040F69C50C2F2000040F60062C2F200025D
:104F300010F022FD099940F61C50C2F2000040F624
:104F40008052C2F2000210F017FD099940F61C6071
:104F5000C2F20000079040F2B072C2F20002089262
:104F600010F00AFD0798089A099964301C3210F075
:104F700003FD099940F6F030C2F2000040F2787269
:104F8000C2F2000210F0F8FC099B40F6E460C2F2A5
:104F900000000A9002220B92114611F0F1FE0A98CD
:104FA000D0F8B81044F20002C4F21C620A60D0F8D3
:104FB000B83000215960D0F8B8309960D0F8B830D6
:104FC000DA60D0F89C3047F2A402C3F67D721A6012
:104FD000D0F8AC201160D0F8AC00416045F63060EC
:104FE000C2F200000C9040F2FF7201F0BDFB0B9A80
:104FF0000C9840F20001C2F2004102F0CDFEFFE742
:1050000018F05AFD46F6A451C2F20001049108605E
:1050100040F20000C2F20040008800EE100AB8EE34
:10502000C00A9FED311A20EE010A9FED301A80EE82
:10503000010AB2EE061A20EE010A45F2B430C2F2BD
:10504000000080ED000A40F2DC00C2F20000039094
:10505000FFF70EFE0398FEF7FFFA03980EF018FB19
:10506000039816F099FA0398FEF7CAFC0398FFF725
:105070002BFE0398FFF74CFC0398FFF7D9FB03982E
:1050800017F032F90398FEF733F80398FFF7ACF9FD
:105090000398FEF7E9F8039816F0DAFE40F61C6074
:1050A000C2F2000090ED220A9FED111AF0EE410AC3
:1050B00016F01EFA039890ED5C0A90EDBC1AB7EE5C
:1050C000C00AB7EEC11A684680ED001B53EC102BE6
:1050D00041F2C840C0F6020019F062FA04980121BA
:1050E00018F0CAFC8CE700BF3333534000FF7F4702
:1050F000000000000000000080B546F20000C2F28F
:10510000000003F065FF80BD80B546F27800C2F272
:10511000000003F05DFF80BD80B546F2F000C2F2F2
:10512000000003F055FF80BD80B546F2E010C2F2EA
:10513000000003F04DFF80BD80B546F25820C2F25A
:10514000000003F045FF80BD80B546F2C030C2F2DA
:10515000000003F03DFF80BD80B546F23840C2F24A
:10516000000003F035FF80BD80B546F2B040C2F2CA
:10517000000003F02DFF80BD80B546F22850C2F23A
:10518000000003F025FF80BD80B546F2A050C2F2BA
:10519000000003F01DFF80BD80B546F21860C2F22A
:1051A000000003F015FF80BD80B546F26810C2F222
:1051B000000003F00DFF80BD80B546F2D020C2F2A2
:1051C000000003F005FF80BD80B546F24830C2F212
:1051D000000003F0FDFE80BD80B545F61070C2F200
:1051E000000003F0F5FE80BD83B0029002980168D4
:1051F00001201022C4F202029142009000F0A3802C
:10520000FFE70298016801202822C4F202029142BD
:10521000009000F09880FFE702980168012040228A
:10522000C4F202029142009000F08D80FFE70298E4
:10523000016801205822C4F202029142009000F05D
:105240008280FFE70298016801207022C4F2020206
:105250009142009077D0FFE70298016801208822F0
:10526000C4F20202914200906DD0FFE702980168FB
:105270000120A022C4F202029142009063D0FFE715
:10528000029801680120B822C4F202029142009003
:1052900059D0FFE702980168012040F21042C4F2A1
:1052A0000202914200904ED0FFE70298016801206F
:1052B00040F22842C4F202029142009043D0FFE73C
:1052C00002980168012040F24042C4F20202914279
:1052D000009038D0FFE702980168012040F2584260
:1052E000C4F20202914200902DD0FFE702980168BB
:1052F000012040F27042C4F202029142009022D09A
:10530000FFE702980168012040F28842C4F20202DD
:105310009142009017D0FFE702980168012040F207
:10532000A042C4F20202914200900CD0FFE7029822
:1053300000684FF64831CBF6FD710844B0FA80F0B2
:1053400040090090FFE70098C00740B3FFE70298CC
:10535000007810384AF6AB21CAF6AA21A0FB01104A
:1053600000090190019800F0070140F67040C0F676
:105370000200405C0299C8650198042807D3FFE742
:1053800002990868042262F30900886506E0029920
:10539000086840F2FF3290438865FFE705E0029914
:1053A000086820F0FF008865FFE70298806D03B071
:1053B000704700000000000084B00390039800686C
:1053C000019003980168012045F20842C5F60202E7
:1053D000914200904ED0FFE703980168012045F20A
:1053E0001C42C5F602029142009043D0FFE70398A9
:1053F0000168012045F23042C5F602029142009058
:1054000038D0FFE703980168012045F24442C5F611
:105410000202914200902DD0FFE70398016801201D
:1054200045F25842C5F602029142009022D0FFE7B1
:1054300003980168012045F26C42C5F602029142D0
:10544000009017D0FFE703980168012045F28042E1
:10545000C5F60202914200900CD0FFE70398006865
:105460004AF66C31CAF2FD710844B0FA80F0400986
:105470000090FFE70098C00710B3FFE7039800789B
:1054800008384CF6CD41CCF6CC41A0FB0110000908
:105490000290029945F60000C5F6020000EB81007B
:1054A00003990866039945F68000C5F60200486630
:1054B000029800F01F01012088400399886635E0BA
:1054C0000398007810384AF6AB21CAF6AA21A0FB4F
:1054D000011000090290019840F2B841C4F20201A3
:1054E00088420CD8FFE7019840F21041C4F2020153
:1054F000884204D3FFE7029808300290FFE7029940
:1055000040F60000C4F2020000EB81000399086637
:10551000039940F68000C4F202004866029800F049
:105520001F010120884003998866FFE704B0704797
:1055300083B002900298007901900198002800F051
:105540008A80FFE70198082800F28580FFE702982B
:105550000168012045F20842C5F60202914200901E
:105560004ED0FFE702980168012045F21C42C5F6C3
:1055700002029142009043D0FFE7029801680120A7
:1055800045F23042C5F602029142009038D0FFE762
:1055900002980168012045F24442C5F60202914298
:1055A00000902DD0FFE702980168012045F2584293
:1055B000C5F602029142009022D0FFE702980168EE
:1055C000012045F26C42C5F602029142009017D0CC
:1055D000FFE702980168012045F28042C5F6020209
:1055E000914200900CD0FFE7029800684AF66C31B7
:1055F000CAF2FD710844B0FA80F040090090FFE75C
:105600000098C00780B1FFE7019945F6FC00C5F698
:10561000020000EB81000299C866029945F640102D
:10562000C5F6020008670FE0019940F6FC00C4F2DD
:10563000020000EB81000299C866029940F6401012
:10564000C4F202000867FFE70198411E012088406C
:1056500002994867FFE703B07047000000000000B0
:1056600085B0049000208DF80F000498806918BB65
:10567000FFE70498806A029003281BD80299DFE8AC
:1056800001F0020D0218049890F82F00C00720B115
:10569000FFE701208DF80F00FFE70CE00498C06AD7
:1056A000B0F1C07F04D1FFE701208DF80F00FFE7C4
:1056B00001E000E0FFE747E004988069B0F5005F93
:1056C00026D1FFE70498806A019003281ED801992B
:1056D000DFE801F00206021101208DF80F0016E04C
:1056E000049890F82F00C00720B1FFE701208DF843
:1056F0000F00FFE70BE00498C06AB0F1C07F04D14F
:10570000FFE701208DF80F00FFE700E0FFE71AE058
:105710000498806A0090032804D3FFE700980328C8
:1057200004D00EE001208DF80F000BE0049890F8F3
:105730002F00C00720B1FFE701208DF80F00FFE721
:1057400000E0FFE7FFE7FFE79DF80F0005B07047B7
:1057500089B008900791069205930898806D04908F
:105760000898806D03900898016801201022C4F207
:1057700002029142029000F00381FFE7089801685D
:1057800001202822C4F202029142029000F0F88027
:10579000FFE70898016801204022C4F2020291420A
:1057A000029000F0ED80FFE7089801680120582280
:1057B000C4F202029142029000F0E280FFE70898F2
:1057C000016801207022C4F202029142029000F0AE
:1057D000D780FFE70898016801208822C4F20202FE
:1057E0009142029000F0CC80FFE708980168012008
:1057F000A022C4F202029142029000F0C180FFE7B1
:10580000089801680120B822C4F202029142029075
:1058100000F0B680FFE708980168012040F21042CE
:10582000C4F202029142029000F0AA80FFE70898B9
:105830000168012040F22842C4F202029142029023
:1058400000F09E80FFE708980168012040F2404286
:10585000C4F202029142029000F09280FFE70898A1
:105860000168012040F25842C4F2020291420290C3
:1058700000F08680FFE708980168012040F270423E
:10588000C4F20202914202907AD0FFE708980168C0
:10589000012040F28842C4F20202914202906FD08D
:1058A000FFE708980168012040F2A042C4F202021A
:1058B0009142029064D0FFE708980168012040F20D
:1058C000B842C4F202029142029059D0FFE7089810
:1058D0000168012045F20842C5F602029142029099
:1058E0004ED0FFE708980168012045F21C42C5F63A
:1058F00002029142029043D0FFE70898016801201C
:1059000045F23042C5F602029142029038D0FFE7DC
:1059100008980168012045F24442C5F6020291420E
:1059200002902DD0FFE708980168012045F2584207
:10593000C5F602029142029022D0FFE70898016862
:10594000012045F26C42C5F602029142029017D046
:10595000FFE708980168012045F28042C5F602027F
:10596000914202900CD0FFE7089800684AF66C312B
:10597000CAF2FD710844B0FA80F040090290FFE7D6
:105980000298C00770B1FFE70898416E806E4860CA
:105990000898C06E28B1FFE70898016F406F486013
:1059A000FFE7FFE70898016801201022C4F2020215
:1059B0009142019000F0A380FFE708980168012060
:1059C0002822C4F202029142019000F09880FFE781
:1059D0000898016801204022C4F20202914201901D
:1059E00000F08D80FFE70898016801205822C4F27A
:1059F00002029142019000F08280FFE7089801685E
:105A000001207022C4F202029142019077D0FFE798
:105A10000898016801208822C4F202029142019094
:105A20006DD0FFE7089801680120A022C4F20202AD
:105A30009142019063D0FFE7089801680120B822E5
:105A4000C4F202029142019059D0FFE70898016820
:105A5000012040F21042C4F20202914201904ED065
:105A6000FFE708980168012040F22842C4F20202D0
:105A70009142019043D0FFE708980168012040F26D
:105A80004042C4F202029142019038D0FFE70898E8
:105A90000168012040F25842C4F202029142019092
:105AA0002DD0FFE708980168012040F27042C4F24F
:105AB00002029142019022D0FFE70898016801207C
:105AC00040F28842C4F202029142019017D0FFE7EF
:105AD00008980168012040F2A042C4F202029142FB
